{"contracts/DegenDream.sol":{"DegenDream":{"abi":[{"inputs":[{"internalType":"address","name":"_vrfCoordinator","type":"address"},{"internalType":"bytes32","name":"_keyHash","type":"bytes32"},{"internalType":"uint256","name":"_subscriptionId","type":"uint256"},{"internalType":"address","name":"_bettingToken","type":"address"},{"internalType":"address","name":"_treasury","type":"address"}],"stateMutability":"nonpayable","type":"constructor"},{"inputs":[{"internalType":"uint8","name":"number","type":"uint8"}],"name":"DuplicateNumber","type":"error"},{"inputs":[{"internalType":"uint256","name":"required","type":"uint256"},{"internalType":"uint256","name":"actual","type":"uint256"}],"name":"InsufficientBalance","type":"error"},{"inputs":[{"internalType":"uint256","name":"amount","type":"uint256"},{"internalType":"uint256","name":"minBet","type":"uint256"},{"internalType":"uint256","name":"maxBet","type":"uint256"}],"name":"InvalidBetAmount","type":"error"},{"inputs":[{"internalType":"uint8","name":"number","type":"uint8"}],"name":"InvalidNumber","type":"error"},{"inputs":[],"name":"InvalidNumbersLength","type":"error"},{"inputs":[{"internalType":"address","name":"have","type":"address"},{"internalType":"address","name":"want","type":"address"}],"name":"OnlyCoordinatorCanFulfill","type":"error"},{"inputs":[{"internalType":"address","name":"have","type":"address"},{"internalType":"address","name":"owner","type":"address"},{"internalType":"address","name":"coordinator","type":"address"}],"name":"OnlyOwnerOrCoordinator","type":"error"},{"inputs":[],"name":"TransferFailed","type":"error"},{"inputs":[],"name":"ZeroAddress","type":"error"},{"anonymous":false,"inputs":[{"indexed":false,"internalType":"uint256","name":"minBet","type":"uint256"},{"indexed":false,"internalType":"uint256","name":"maxBet","type":"uint256"}],"name":"BetLimitsUpdated","type":"event"},{"anonymous":false,"inputs":[{"indexed":true,"internalType":"uint256","name":"requestId","type":"uint256"},{"indexed":true,"internalType":"address","name":"player","type":"address"},{"indexed":false,"internalType":"uint256","name":"amount","type":"uint256"},{"indexed":false,"internalType":"uint8[]","name":"numbers","type":"uint8[]"}],"name":"BetPlaced","type":"event"},{"anonymous":false,"inputs":[{"indexed":true,"internalType":"address","name":"oldToken","type":"address"},{"indexed":true,"internalType":"address","name":"newToken","type":"address"}],"name":"BettingTokenChanged","type":"event"},{"anonymous":false,"inputs":[{"indexed":false,"internalType":"uint32","name":"newLimit","type":"uint32"}],"name":"CallbackGasLimitUpdated","type":"event"},{"anonymous":false,"inputs":[{"indexed":false,"internalType":"address","name":"vrfCoordinator","type":"address"}],"name":"CoordinatorSet","type":"event"},{"anonymous":false,"inputs":[{"indexed":false,"internalType":"uint256","name":"amount","type":"uint256"}],"name":"EmergencyWithdrawal","type":"event"},{"anonymous":false,"inputs":[{"indexed":true,"internalType":"uint256","name":"requestId","type":"uint256"},{"indexed":false,"internalType":"uint8[]","name":"numbers","type":"uint8[]"}],"name":"NumbersDrawn","type":"event"},{"anonymous":false,"inputs":[{"indexed":true,"internalType":"address","name":"from","type":"address"},{"indexed":true,"internalType":"address","name":"to","type":"address"}],"name":"OwnershipTransferRequested","type":"event"},{"anonymous":false,"inputs":[{"indexed":true,"internalType":"address","name":"from","type":"address"},{"indexed":true,"internalType":"address","name":"to","type":"address"}],"name":"OwnershipTransferred","type":"event"},{"anonymous":false,"inputs":[{"indexed":false,"internalType":"address","name":"account","type":"address"}],"name":"Paused","type":"event"},{"anonymous":false,"inputs":[{"indexed":true,"internalType":"uint256","name":"requestId","type":"uint256"},{"indexed":true,"internalType":"address","name":"player","type":"address"},{"indexed":false,"internalType":"uint256","name":"amount","type":"uint256"},{"indexed":false,"internalType":"uint8","name":"matches","type":"uint8"}],"name":"PrizeAwarded","type":"event"},{"anonymous":false,"inputs":[{"indexed":false,"internalType":"uint256","name":"newAmount","type":"uint256"}],"name":"PrizePoolUpdated","type":"event"},{"anonymous":false,"inputs":[{"indexed":false,"internalType":"address","name":"token","type":"address"},{"indexed":false,"internalType":"uint256","name":"amount","type":"uint256"}],"name":"TokensRescued","type":"event"},{"anonymous":false,"inputs":[{"indexed":false,"internalType":"address","name":"account","type":"address"}],"name":"Unpaused","type":"event"},{"inputs":[],"name":"KEY_HASH","outputs":[{"internalType":"bytes32","name":"","type":"bytes32"}],"stateMutability":"view","type":"function"},{"inputs":[],"name":"MAX_BET","outputs":[{"internalType":"uint256","name":"","type":"uint256"}],"stateMutability":"view","type":"function"},{"inputs":[],"name":"MAX_NUMBER","outputs":[{"internalType":"uint8","name":"","type":"uint8"}],"stateMutability":"view","type":"function"},{"inputs":[],"name":"MIN_BET","outputs":[{"internalType":"uint256","name":"","type":"uint256"}],"stateMutability":"view","type":"function"},{"inputs":[],"name":"NUM_WORDS","outputs":[{"internalType":"uint32","name":"","type":"uint32"}],"stateMutability":"view","type":"function"},{"inputs":[],"name":"PRIZE_POOL_PERCENT","outputs":[{"internalType":"uint8","name":"","type":"uint8"}],"stateMutability":"view","type":"function"},{"inputs":[],"name":"REQUEST_CONFIRMATIONS","outputs":[{"internalType":"uint16","name":"","type":"uint16"}],"stateMutability":"view","type":"function"},{"inputs":[],"name":"REQUIRED_NUMBERS","outputs":[{"internalType":"uint8","name":"","type":"uint8"}],"stateMutability":"view","type":"function"},{"inputs":[],"name":"SUBSCRIPTION_ID","outputs":[{"internalType":"uint256","name":"","type":"uint256"}],"stateMutability":"view","type":"function"},{"inputs":[],"name":"TREASURY_PERCENT","outputs":[{"internalType":"uint8","name":"","type":"uint8"}],"stateMutability":"view","type":"function"},{"inputs":[],"name":"acceptOwnership","outputs":[],"stateMutability":"nonpayable","type":"function"},{"inputs":[{"internalType":"uint256","name":"amount","type":"uint256"}],"name":"addToPrizePool","outputs":[],"stateMutability":"nonpayable","type":"function"},{"inputs":[{"internalType":"uint256","name":"","type":"uint256"}],"name":"bets","outputs":[{"internalType":"address","name":"player","type":"address"},{"internalType":"uint256","name":"amount","type":"uint256"},{"internalType":"bool","name":"processed","type":"bool"},{"internalType":"uint8","name":"matches","type":"uint8"},{"internalType":"uint256","name":"payout","type":"uint256"}],"stateMutability":"view","type":"function"},{"inputs":[],"name":"bettingToken","outputs":[{"internalType":"contract IERC20","name":"","type":"address"}],"stateMutability":"view","type":"function"},{"inputs":[{"internalType":"uint8","name":"matches","type":"uint8"},{"internalType":"uint256","name":"betAmount","type":"uint256"}],"name":"calculatePrize","outputs":[{"internalType":"uint256","name":"","type":"uint256"}],"stateMutability":"pure","type":"function"},{"inputs":[],"name":"callbackGasLimit","outputs":[{"internalType":"uint32","name":"","type":"uint32"}],"stateMutability":"view","type":"function"},{"inputs":[],"name":"emergencyWithdraw","outputs":[],"stateMutability":"nonpayable","type":"function"},{"inputs":[{"internalType":"uint256","name":"requestId","type":"uint256"}],"name":"getBet","outputs":[{"internalType":"address","name":"player","type":"address"},{"internalType":"uint256","name":"amount","type":"uint256"},{"internalType":"uint8[]","name":"numbers","type":"uint8[]"},{"internalType":"bool","name":"processed","type":"bool"},{"internalType":"uint8","name":"matches","type":"uint8"},{"internalType":"uint256","name":"payout","type":"uint256"}],"stateMutability":"view","type":"function"},{"inputs":[],"name":"owner","outputs":[{"internalType":"address","name":"","type":"address"}],"stateMutability":"view","type":"function"},{"inputs":[],"name":"pause","outputs":[],"stateMutability":"nonpayable","type":"function"},{"inputs":[],"name":"paused","outputs":[{"internalType":"bool","name":"","type":"bool"}],"stateMutability":"view","type":"function"},{"inputs":[{"internalType":"uint256","name":"amount","type":"uint256"},{"internalType":"uint8[]","name":"numbers","type":"uint8[]"}],"name":"placeBet","outputs":[{"internalType":"uint256","name":"","type":"uint256"}],"stateMutability":"nonpayable","type":"function"},{"inputs":[],"name":"prizePool","outputs":[{"internalType":"uint256","name":"","type":"uint256"}],"stateMutability":"view","type":"function"},{"inputs":[{"internalType":"uint256","name":"requestId","type":"uint256"},{"internalType":"uint256[]","name":"randomWords","type":"uint256[]"}],"name":"rawFulfillRandomWords","outputs":[],"stateMutability":"nonpayable","type":"function"},{"inputs":[{"internalType":"uint256","name":"amount","type":"uint256"}],"name":"removePrizePoolFunds","outputs":[],"stateMutability":"nonpayable","type":"function"},{"inputs":[{"internalType":"address","name":"tokenAddress","type":"address"},{"internalType":"uint256","name":"amount","type":"uint256"}],"name":"rescueTokens","outputs":[],"stateMutability":"nonpayable","type":"function"},{"inputs":[],"name":"s_vrfCoordinator","outputs":[{"internalType":"contract IVRFCoordinatorV2Plus","name":"","type":"address"}],"stateMutability":"view","type":"function"},{"inputs":[{"internalType":"uint256","name":"_minBet","type":"uint256"},{"internalType":"uint256","name":"_maxBet","type":"uint256"}],"name":"setBetLimits","outputs":[],"stateMutability":"nonpayable","type":"function"},{"inputs":[{"internalType":"address","name":"_newToken","type":"address"}],"name":"setBettingToken","outputs":[],"stateMutability":"nonpayable","type":"function"},{"inputs":[{"internalType":"uint32","name":"_callbackGasLimit","type":"uint32"}],"name":"setCallbackGasLimit","outputs":[],"stateMutability":"nonpayable","type":"function"},{"inputs":[{"internalType":"address","name":"_vrfCoordinator","type":"address"}],"name":"setCoordinator","outputs":[],"stateMutability":"nonpayable","type":"function"},{"inputs":[{"internalType":"address","name":"_treasury","type":"address"}],"name":"setTreasury","outputs":[],"stateMutability":"nonpayable","type":"function"},{"inputs":[{"internalType":"address","name":"to","type":"address"}],"name":"transferOwnership","outputs":[],"stateMutability":"nonpayable","type":"function"},{"inputs":[],"name":"treasury","outputs":[{"internalType":"address","name":"","type":"address"}],"stateMutability":"view","type":"function"},{"inputs":[],"name":"unpause","outputs":[],"stateMutability":"nonpayable","type":"function"}],"evm":{"bytecode":{"linkReferences":{},"object":"60c0604052674563918244f40000600455681b1ae4d6e2ef5000006005556006805463ffffffff1916622625a01790553480156200003c57600080fd5b5060405162002691380380620026918339810160408190526200005f9162000294565b843380600081620000b75760405162461bcd60e51b815260206004820152601860248201527f43616e6e6f7420736574206f776e657220746f207a65726f000000000000000060448201526064015b60405180910390fd5b600080546001600160a01b0319166001600160a01b0384811691909117909155811615620000ea57620000ea81620001cc565b5050506001600160a01b038116620001155760405163d92e233d60e01b815260040160405180910390fd5b600280546001600160a81b0319166001600160a01b0392831617905560016003558216620001565760405163d92e233d60e01b815260040160405180910390fd5b6001600160a01b0381166200017e5760405163d92e233d60e01b815260040160405180910390fd5b60809390935260a09190915260068054600160201b600160c01b0319166401000000006001600160a01b0393841602179055600780546001600160a01b0319169190921617905550620002f2565b336001600160a01b03821603620002265760405162461bcd60e51b815260206004820152601760248201527f43616e6e6f74207472616e7366657220746f2073656c660000000000000000006044820152606401620000ae565b600180546001600160a01b0319166001600160a01b0383811691821790925560008054604051929316917fed8889f560326eb138920d842192f0eb3dd22b4f139c87a2c57538e05bae12789190a350565b80516001600160a01b03811681146200028f57600080fd5b919050565b600080600080600060a08688031215620002ad57600080fd5b620002b88662000277565b94506020860151935060408601519250620002d66060870162000277565b9150620002e66080870162000277565b90509295509295909350565b60805160a05161236b620003266000396000818161021b0152610f400152600081816103870152610f1d015261236b6000f3fe608060405234801561001057600080fd5b50600436106102115760003560e01c80637687dd4911610125578063a4eb718c116100ad578063de40a4a91161007c578063de40a4a9146104fa578063de6adce41461050d578063f0f4426014610515578063f2fde38b14610528578063fea9b5721461053b57600080fd5b8063a4eb718c146104c4578063a7fd35e7146104d7578063db2e21bc146104df578063ddb7fda8146104e757600080fd5b806383d5e726116100f457806383d5e7261461046b5780638456cb59146104855780638da5cb5b1461048d5780638ea981171461049e5780639eccacf6146104b157600080fd5b80637687dd491461043457806379ba5097146104475780637e95b5231461044f578063838f8d3c1461045857600080fd5b806351dc86a5116101a857806361d027b31161017757806361d027b3146103ec5780636540742f146103ff57806367f082b014610408578063719ce73e1461042357806372cf6e341461042c57600080fd5b806351dc86a51461038257806357376198146103a957806357fbd802146103bc5780635c975abb146103cf57600080fd5b806322af00fa116101e457806322af00fa1461029d57806324f74697146103235780633f4ba83a1461034857806343425e881461035057600080fd5b8063030932bb14610216578063061e494f14610250578063186ba253146102755780631fe543e31461028a575b600080fd5b61023d7f000000000000000000000000000000000000000000000000000000000000000081565b6040519081526020015b60405180910390f35b61026361025e366004611ed4565b610543565b60405161024796959493929190611f2b565b610288610283366004611ed4565b610612565b005b610288610298366004611fbf565b610752565b6102e96102ab366004611ed4565b60096020526000908152604090208054600182015460038301546004909301546001600160a01b0390921692909160ff808316926101009004169085565b604080516001600160a01b03909616865260208601949094529115159284019290925260ff9091166060830152608082015260a001610247565b6006546103339063ffffffff1681565b60405163ffffffff9091168152602001610247565b6102886107a2565b60065461036a90600160201b90046001600160a01b031681565b6040516001600160a01b039091168152602001610247565b61023d7f000000000000000000000000000000000000000000000000000000000000000081565b6102886103b7366004612027565b6107b4565b61023d6103ca366004612062565b6109f3565b600254600160a01b900460ff166040519015158152602001610247565b60075461036a906001600160a01b031681565b61023d60045481565b610410600381565b60405161ffff9091168152602001610247565b61023d60085481565b610333600181565b61028861044236600461207e565b610a74565b610288610bb4565b61023d60055481565b61023d610466366004611fbf565b610c5e565b610473600a81565b60405160ff9091168152602001610247565b610288611184565b6000546001600160a01b031661036a565b6102886104ac3660046120a0565b611194565b60025461036a906001600160a01b031681565b6102886104d23660046120bb565b611287565b610473605a81565b610288611372565b6102886104f5366004611ed4565b611550565b6102886105083660046120a0565b6116cb565b610473600681565b6102886105233660046120a0565b611759565b6102886105363660046120a0565b6117aa565b610473606381565b600081815260096020908152604080832080546001820154600383015460048401546002850180548751818a0281018a0190985280885289986060988a988998899891976001600160a01b039091169691959460ff808316956101009093041693918691908301828280156105f557602002820191906000526020600020906000905b825461010083900a900460ff168152602060019283018181049485019490930390920291018084116105c65790505b505050505093509650965096509650965096505091939550919395565b61061a6117be565b6000811161066f5760405162461bcd60e51b815260206004820152601d60248201527f416d6f756e74206d7573742062652067726561746572207468616e203000000060448201526064015b60405180910390fd5b6006546040516323b872dd60e01b815233600482015230602482015260448101839052600091600160201b90046001600160a01b0316906323b872dd906064016020604051808303816000875af11580156106ce573d6000803e3d6000fd5b505050506040513d601f19601f820116820180604052508101906106f291906120e1565b905080610712576040516312171d8360e31b815260040160405180910390fd5b81600860008282546107249190612119565b9091555050600854604051908152600080516020612316833981519152906020015b60405180910390a15050565b6002546001600160a01b031633146107925760025460405163073e64fd60e21b81523360048201526001600160a01b039091166024820152604401610666565b61079d838383611811565b505050565b6107aa6117be565b6107b2611b71565b565b6107bc6117be565b6006546001600160a01b03600160201b9091048116908316036108215760405162461bcd60e51b815260206004820152601860248201527f43616e6e6f74207265736375652067616d6520746f6b656e00000000000000006044820152606401610666565b6040516370a0823160e01b8152306004820152829082906001600160a01b038316906370a0823190602401602060405180830381865afa158015610869573d6000803e3d6000fd5b505050506040513d601f19601f8201168201806040525081019061088d919061212c565b10156108d25760405162461bcd60e51b8152602060048201526014602482015273496e73756666696369656e742062616c616e636560601b6044820152606401610666565b6000816001600160a01b031663a9059cbb6108f56000546001600160a01b031690565b6040516001600160e01b031960e084901b1681526001600160a01b039091166004820152602481018690526044016020604051808303816000875af1158015610942573d6000803e3d6000fd5b505050506040513d601f19601f8201168201806040525081019061096691906120e1565b9050806109ab5760405162461bcd60e51b8152602060048201526013602482015272151bdad95b881c995cd8dd594819985a5b1959606a1b6044820152606401610666565b604080516001600160a01b0386168152602081018590527f68f67de89e96b13a3ea058af5fd44cc125efceb528482d539c7b43db2faa066e910160405180910390a150505050565b60008260ff16600603610a1257610a0b826064612145565b9050610a6e565b8260ff16600503610a2857610a0b826032612145565b8260ff16600403610a3e57610a0b826014612145565b8260ff16600303610a5457610a0b82600a612145565b8260ff16600203610a6a57610a0b826005612145565b5060005b92915050565b610a7c6117be565b60008211610acc5760405162461bcd60e51b815260206004820152601e60248201527f4d696e20626574206d7573742062652067726561746572207468616e203000006044820152606401610666565b818111610b275760405162461bcd60e51b8152602060048201526024808201527f4d617820626574206d7573742062652067726561746572207468616e206d696e6044820152630818995d60e21b6064820152608401610666565b69d3c21bcecceda1000000811115610b745760405162461bcd60e51b815260206004820152601060248201526f09ac2f040c4cae840e8dede40d0d2ced60831b6044820152606401610666565b6004829055600581905560408051838152602081018390527ff483a8cf66fadba78e10f404e5f1639eb2a336535936e1af01f333d1215378d19101610746565b6001546001600160a01b03163314610c075760405162461bcd60e51b815260206004820152601660248201527526bab9ba10313290383937b837b9b2b21037bbb732b960511b6044820152606401610666565b60008054336001600160a01b0319808316821784556001805490911690556040516001600160a01b0390921692909183917f8be0079c531659141344cd1fd0a4f28419497f9722a3daafe3b4186f6b6457e091a350565b6000610c68611bc6565b610c70611c1f565b600454841080610c81575060055484115b15610cb557600480546005546040516314de87a560e11b815292830187905260248301919091526044820152606401610666565b60068214610cd957604051600162f548bf60e01b0319815260040160405180910390fd5b6000805b83811015610d8a576000858583818110610cf957610cf961215c565b9050602002016020810190610d0e9190612172565b905060ff81161580610d235750606360ff8216115b15610d455760405162307cd160e21b815260ff82166004820152602401610666565b600160ff82161b83811615610d725760405163fccc6ea760e01b815260ff83166004820152602401610666565b92909217915080610d828161218d565b915050610cdd565b506006546040516323b872dd60e01b815233600482015230602482015260448101879052600091600160201b90046001600160a01b0316906323b872dd906064016020604051808303816000875af1158015610dea573d6000803e3d6000fd5b505050506040513d601f19601f82011682018060405250810190610e0e91906120e1565b905080610e2e576040516312171d8360e31b815260040160405180910390fd5b60006064610e3d605a89612145565b610e4791906121bc565b90506000610e5582896121d0565b90508160086000828254610e699190612119565b909155505060065460075460405163a9059cbb60e01b81526001600160a01b03918216600482015260248101849052600160201b909204169063a9059cbb906044016020604051808303816000875af1158015610eca573d6000803e3d6000fd5b505050506040513d601f19601f82011682018060405250810190610eee91906120e1565b925082610f0e576040516312171d8360e31b815260040160405180910390fd5b6002546040805160c0810182527f000000000000000000000000000000000000000000000000000000000000000081527f000000000000000000000000000000000000000000000000000000000000000060208083019190915260038284015260065463ffffffff1660608301526001608083015282519081019092526000808352926001600160a01b031691639b1c385e919060a0820190610fb090611c6c565b8152506040518263ffffffff1660e01b8152600401610fcf91906121e3565b6020604051808303816000875af1158015610fee573d6000803e3d6000fd5b505050506040513d601f19601f82011682018060405250810190611012919061212c565b90506040518060c00160405280336001600160a01b031681526020018a815260200189898080602002602001604051908101604052809392919081815260200183836020028082843760009201829052509385525050506020808301829052604080840183905260609093018290528482526009815290829020835181546001600160a01b0319166001600160a01b039091161781558382015160018201559183015180516110c79260028501920190611e19565b506060820151600382018054608085015160ff166101000261ff00199315159390931661ffff199091161791909117905560a090910151600490910155604051339082907fd60a2fc8819207eb21f78d0ae6d3c0a97cc7a3e76eb20e4d8c3049023f9da3069061113c908d908d908d9061227f565b60405180910390a360008051602061231683398151915260085460405161116591815260200190565b60405180910390a194505050505061117d6001600355565b9392505050565b61118c6117be565b6107b2611cdd565b6000546001600160a01b031633148015906111ba57506002546001600160a01b03163314155b1561120b57336111d26000546001600160a01b031690565b60025460405163061db9c160e01b81526001600160a01b0393841660048201529183166024830152919091166044820152606401610666565b6001600160a01b0381166112325760405163d92e233d60e01b815260040160405180910390fd5b600280546001600160a01b0319166001600160a01b0383169081179091556040519081527fd1a6a14209a385a964d036e404cb5cfb71f4000cdb03c9366292430787261be6906020015b60405180910390a150565b61128f6117be565b620186a08163ffffffff1610156112dc5760405162461bcd60e51b8152602060048201526011602482015270476173206c696d697420746f6f206c6f7760781b6044820152606401610666565b624c4b408163ffffffff16111561132a5760405162461bcd60e51b815260206004820152601260248201527108ec2e640d8d2dad2e840e8dede40d0d2ced60731b6044820152606401610666565b6006805463ffffffff191663ffffffff83169081179091556040519081527f25358b14cd4557629ee75bbccedef47b9c0fe38c159233fb711b4c547692f8899060200161127c565b61137a6117be565b6006546040516370a0823160e01b8152306004820152600091600160201b90046001600160a01b0316906370a0823190602401602060405180830381865afa1580156113ca573d6000803e3d6000fd5b505050506040513d601f19601f820116820180604052508101906113ee919061212c565b9050600081116114395760405162461bcd60e51b81526020600482015260166024820152754e6f2062616c616e636520746f20776974686472617760501b6044820152606401610666565b6006546000906001600160a01b03600160201b9091041663a9059cbb6114676000546001600160a01b031690565b6040516001600160e01b031960e084901b1681526001600160a01b039091166004820152602481018590526044016020604051808303816000875af11580156114b4573d6000803e3d6000fd5b505050506040513d601f19601f820116820180604052508101906114d891906120e1565b9050806114f8576040516312171d8360e31b815260040160405180910390fd5b600060088190556040519081526000805160206123168339815191529060200160405180910390a16040518281527fcbba13897c2ac3f7fdb11e857b1a5a5c47f51e3fbeffa74d430f2b06177b45c090602001610746565b6115586117be565b600081116115a85760405162461bcd60e51b815260206004820152601d60248201527f416d6f756e74206d7573742062652067726561746572207468616e20300000006044820152606401610666565b6008548111156115fa5760405162461bcd60e51b815260206004820152601960248201527f416d6f756e742065786365656473207072697a6520706f6f6c000000000000006044820152606401610666565b6006546000906001600160a01b03600160201b9091041663a9059cbb6116286000546001600160a01b031690565b6040516001600160e01b031960e084901b1681526001600160a01b039091166004820152602481018590526044016020604051808303816000875af1158015611675573d6000803e3d6000fd5b505050506040513d601f19601f8201168201806040525081019061169991906120e1565b9050806116b9576040516312171d8360e31b815260040160405180910390fd5b816008600082825461072491906121d0565b6116d36117be565b6001600160a01b0381166116fa5760405163d92e233d60e01b815260040160405180910390fd5b600680546001600160a01b03838116600160201b818102640100000000600160c01b031985161790945560405193909204169182907ff8ad860c5d45b1983b1bde1f0d779c6933f3c8740080a2ad9f1b40d2524099b790600090a35050565b6117616117be565b6001600160a01b0381166117885760405163d92e233d60e01b815260040160405180910390fd5b600780546001600160a01b0319166001600160a01b0392909216919091179055565b6117b26117be565b6117bb81611d20565b50565b6000546001600160a01b031633146107b25760405162461bcd60e51b815260206004820152601660248201527527b7363c9031b0b63630b1363290313c9037bbb732b960511b6044820152606401610666565b6000838152600960205260409020600381015460ff16611b6b5760408051600680825260e082019092526000916020820160c0803683370190505090506000806000868660008181106118665761186661215c565b9050602002013590505b60068210156119045760408051602080820193909352815180820384018152908201909152805191012060006118a76063836122cf565b6118b2906001612119565b9050600160ff82161b8481166000036118fd578085179450818685815181106118dd576118dd61215c565b60ff90921660209283029190910190910152836118f98161218d565b9450505b5050611870565b6000805b60028701548110156119ae5760005b600681101561199b578681815181106119325761193261215c565b602002602001015160ff168860020183815481106119525761195261215c565b60009182526020918290209181049091015460ff601f9092166101000a900416036119895782611981816122e3565b93505061199b565b806119938161218d565b915050611917565b50806119a68161218d565b915050611908565b5060006119bf8288600101546109f3565b90506000811180156119d357506008548111155b15611a945780600860008282546119ea91906121d0565b9091555050600654875460405163a9059cbb60e01b81526001600160a01b03918216600482015260248101849052600092600160201b90049091169063a9059cbb906044016020604051808303816000875af1158015611a4e573d6000803e3d6000fd5b505050506040513d601f19601f82011682018060405250810190611a7291906120e1565b905080611a92576040516312171d8360e31b815260040160405180910390fd5b505b60038701805460ff84166101000261ffff19909116176001179055600487018190556040518a907f9804522f28cc6c09332335d353e5331ff6336f84750c7c3ecfcb313f292ae66090611ae8908990612302565b60405180910390a286546040805183815260ff851660208201526001600160a01b03909216918c917f8f1f9dae235bf33a2f4580d2ee07151c4d931a0aeabeb962ba9b2505b92ec74f910160405180910390a3600080516020612316833981519152600854604051611b5c91815260200190565b60405180910390a15050505050505b50505050565b611b79611dc9565b6002805460ff60a01b191690557f5db9ee0a495bf2e6ff9c91a7834c1ba4fdd244a5e8aa4e537bd38aeae4b073aa335b6040516001600160a01b03909116815260200160405180910390a1565b600260035403611c185760405162461bcd60e51b815260206004820152601f60248201527f5265656e7472616e637947756172643a207265656e7472616e742063616c6c006044820152606401610666565b6002600355565b600254600160a01b900460ff16156107b25760405162461bcd60e51b815260206004820152601060248201526f14185d5cd8589b194e881c185d5cd95960821b6044820152606401610666565b60607f92fd13387c7fe7befbc38d303d6468778fb9731bc4583f17d92989c6fcfdeaaa82604051602401611ca591511515815260200190565b60408051601f198184030181529190526020810180516001600160e01b03166001600160e01b03199093169290921790915292915050565b611ce5611c1f565b6002805460ff60a01b1916600160a01b1790557f62e78cea01bee320cd4e420270b5ea74000d11b0c9f74754ebdbfc544b05a258611ba93390565b336001600160a01b03821603611d785760405162461bcd60e51b815260206004820152601760248201527f43616e6e6f74207472616e7366657220746f2073656c660000000000000000006044820152606401610666565b600180546001600160a01b0319166001600160a01b0383811691821790925560008054604051929316917fed8889f560326eb138920d842192f0eb3dd22b4f139c87a2c57538e05bae12789190a350565b600254600160a01b900460ff166107b25760405162461bcd60e51b815260206004820152601460248201527314185d5cd8589b194e881b9bdd081c185d5cd95960621b6044820152606401610666565b82805482825590600052602060002090601f01602090048101928215611eaf5791602002820160005b83821115611e8057835183826101000a81548160ff021916908360ff1602179055509260200192600101602081600001049283019260010302611e42565b8015611ead5782816101000a81549060ff0219169055600101602081600001049283019260010302611e80565b505b50611ebb929150611ebf565b5090565b5b80821115611ebb5760008155600101611ec0565b600060208284031215611ee657600080fd5b5035919050565b600081518084526020808501945080840160005b83811015611f2057815160ff1687529582019590820190600101611f01565b509495945050505050565b60018060a01b038716815285602082015260c060408201526000611f5260c0830187611eed565b94151560608301525060ff92909216608083015260a0909101529392505050565b60008083601f840112611f8557600080fd5b50813567ffffffffffffffff811115611f9d57600080fd5b6020830191508360208260051b8501011115611fb857600080fd5b9250929050565b600080600060408486031215611fd457600080fd5b83359250602084013567ffffffffffffffff811115611ff257600080fd5b611ffe86828701611f73565b9497909650939450505050565b80356001600160a01b038116811461202257600080fd5b919050565b6000806040838503121561203a57600080fd5b6120438361200b565b946020939093013593505050565b803560ff8116811461202257600080fd5b6000806040838503121561207557600080fd5b61204383612051565b6000806040838503121561209157600080fd5b50508035926020909101359150565b6000602082840312156120b257600080fd5b61117d8261200b565b6000602082840312156120cd57600080fd5b813563ffffffff8116811461117d57600080fd5b6000602082840312156120f357600080fd5b8151801515811461117d57600080fd5b634e487b7160e01b600052601160045260246000fd5b80820180821115610a6e57610a6e612103565b60006020828403121561213e57600080fd5b5051919050565b8082028115828204841417610a6e57610a6e612103565b634e487b7160e01b600052603260045260246000fd5b60006020828403121561218457600080fd5b61117d82612051565b60006001820161219f5761219f612103565b5060010190565b634e487b7160e01b600052601260045260246000fd5b6000826121cb576121cb6121a6565b500490565b81810381811115610a6e57610a6e612103565b6000602080835283518184015280840151604084015261ffff6040850151166060840152606084015163ffffffff80821660808601528060808701511660a0860152505060a084015160c08085015280518060e086015260005b8181101561225a578281018401518682016101000152830161223d565b506101009250600083828701015282601f19601f830116860101935050505092915050565b83815260406020808301829052908201839052600090849060608401835b868110156122c35760ff6122b085612051565b168252928201929082019060010161229d565b50979650505050505050565b6000826122de576122de6121a6565b500690565b600060ff821660ff81036122f9576122f9612103565b60010192915050565b60208152600061117d6020830184611eed56fe7bc22304ac771f50d6cc29b56387cb4855f284e7a1f83e6420fe9b8bbdaf45c9a2646970667358221220adcab605594c05789c00bc8fb9aca91929f7676fd1c8f4ce554bdb0efa575d7d64736f6c63430008130033","opcodes":"PUSH1 0xC0 PUSH1 0x40 MSTORE PUSH8 0x4563918244F40000 PUSH1 0x4 SSTORE PUSH9 0x1B1AE4D6E2EF500000 PUSH1 0x5 SSTORE PUSH1 0x6 DUP1 SLOAD PUSH4 0xFFFFFFFF NOT AND PUSH3 0x2625A0 OR SWAP1 SSTORE CALLVALUE DUP1 ISZERO PUSH3 0x3C JUMPI PUSH1 0x0 DUP1 REVERT JUMPDEST POP PUSH1 0x40 MLOAD PUSH3 0x2691 CODESIZE SUB DUP1 PUSH3 0x2691 DUP4 CODECOPY DUP2 ADD PUSH1 0x40 DUP2 SWAP1 MSTORE PUSH3 0x5F SWAP2 PUSH3 0x294 JUMP JUMPDEST DUP5 CALLER DUP1 PUSH1 0x0 DUP2 PUSH3 0xB7 JUMPI PUSH1 0x40 MLOAD PUSH3 0x461BCD PUSH1 0xE5 SHL DUP2 MSTORE PUSH1 0x20 PUSH1 0x4 DUP3 ADD MSTORE PUSH1 0x18 PUSH1 0x24 DUP3 ADD MSTORE PUSH32 0x43616E6E6F7420736574206F776E657220746F207A65726F0000000000000000 PUSH1 0x44 DUP3 ADD MSTORE PUSH1 0x64 ADD JUMPDEST PUSH1 0x40 MLOAD DUP1 SWAP2 SUB SWAP1 REVERT JUMPDEST PUSH1 0x0 DUP1 SLOAD PUSH1 0x1 PUSH1 0x1 PUSH1 0xA0 SHL SUB NOT AND PUSH1 0x1 PUSH1 0x1 PUSH1 0xA0 SHL SUB DUP5 DUP2 AND SWAP2 SWAP1 SWAP2 OR SWAP1 SWAP2 SSTORE DUP2 AND ISZERO PUSH3 0xEA JUMPI PUSH3 0xEA DUP2 PUSH3 0x1CC JUMP JUMPDEST POP POP POP PUSH1 0x1 PUSH1 0x1 PUSH1 0xA0 SHL SUB DUP2 AND PUSH3 0x115 JUMPI PUSH1 0x40 MLOAD PUSH4 0xD92E233D PUSH1 0xE0 SHL DUP2 MSTORE PUSH1 0x4 ADD PUSH1 0x40 MLOAD DUP1 SWAP2 SUB SWAP1 REVERT JUMPDEST PUSH1 0x2 DUP1 SLOAD PUSH1 0x1 PUSH1 0x1 PUSH1 0xA8 SHL SUB NOT AND PUSH1 0x1 PUSH1 0x1 PUSH1 0xA0 SHL SUB SWAP3 DUP4 AND OR SWAP1 SSTORE PUSH1 0x1 PUSH1 0x3 SSTORE DUP3 AND PUSH3 0x156 JUMPI PUSH1 0x40 MLOAD PUSH4 0xD92E233D PUSH1 0xE0 SHL DUP2 MSTORE PUSH1 0x4 ADD PUSH1 0x40 MLOAD DUP1 SWAP2 SUB SWAP1 REVERT JUMPDEST PUSH1 0x1 PUSH1 0x1 PUSH1 0xA0 SHL SUB DUP2 AND PUSH3 0x17E JUMPI PUSH1 0x40 MLOAD PUSH4 0xD92E233D PUSH1 0xE0 SHL DUP2 MSTORE PUSH1 0x4 ADD PUSH1 0x40 MLOAD DUP1 SWAP2 SUB SWAP1 REVERT JUMPDEST PUSH1 0x80 SWAP4 SWAP1 SWAP4 MSTORE PUSH1 0xA0 SWAP2 SWAP1 SWAP2 MSTORE PUSH1 0x6 DUP1 SLOAD PUSH1 0x1 PUSH1 0x20 SHL PUSH1 0x1 PUSH1 0xC0 SHL SUB NOT AND PUSH5 0x100000000 PUSH1 0x1 PUSH1 0x1 PUSH1 0xA0 SHL SUB SWAP4 DUP5 AND MUL OR SWAP1 SSTORE PUSH1 0x7 DUP1 SLOAD PUSH1 0x1 PUSH1 0x1 PUSH1 0xA0 SHL SUB NOT AND SWAP2 SWAP1 SWAP3 AND OR SWAP1 SSTORE POP PUSH3 0x2F2 JUMP JUMPDEST CALLER PUSH1 0x1 PUSH1 0x1 PUSH1 0xA0 SHL SUB DUP3 AND SUB PUSH3 0x226 JUMPI PUSH1 0x40 MLOAD PUSH3 0x461BCD PUSH1 0xE5 SHL DUP2 MSTORE PUSH1 0x20 PUSH1 0x4 DUP3 ADD MSTORE PUSH1 0x17 PUSH1 0x24 DUP3 ADD MSTORE PUSH32 0x43616E6E6F74207472616E7366657220746F2073656C66000000000000000000 PUSH1 0x44 DUP3 ADD MSTORE PUSH1 0x64 ADD PUSH3 0xAE JUMP JUMPDEST PUSH1 0x1 DUP1 SLOAD PUSH1 0x1 PUSH1 0x1 PUSH1 0xA0 SHL SUB NOT AND PUSH1 0x1 PUSH1 0x1 PUSH1 0xA0 SHL SUB DUP4 DUP2 AND SWAP2 DUP3 OR SWAP1 SWAP3 SSTORE PUSH1 0x0 DUP1 SLOAD PUSH1 0x40 MLOAD SWAP3 SWAP4 AND SWAP2 PUSH32 0xED8889F560326EB138920D842192F0EB3DD22B4F139C87A2C57538E05BAE1278 SWAP2 SWAP1 LOG3 POP JUMP JUMPDEST DUP1 MLOAD PUSH1 0x1 PUSH1 0x1 PUSH1 0xA0 SHL SUB DUP2 AND DUP2 EQ PUSH3 0x28F JUMPI PUSH1 0x0 DUP1 REVERT JUMPDEST SWAP2 SWAP1 POP JUMP JUMPDEST PUSH1 0x0 DUP1 PUSH1 0x0 DUP1 PUSH1 0x0 PUSH1 0xA0 DUP7 DUP9 SUB SLT ISZERO PUSH3 0x2AD JUMPI PUSH1 0x0 DUP1 REVERT JUMPDEST PUSH3 0x2B8 DUP7 PUSH3 0x277 JUMP JUMPDEST SWAP5 POP PUSH1 0x20 DUP7 ADD MLOAD SWAP4 POP PUSH1 0x40 DUP7 ADD MLOAD SWAP3 POP PUSH3 0x2D6 PUSH1 0x60 DUP8 ADD PUSH3 0x277 JUMP JUMPDEST SWAP2 POP PUSH3 0x2E6 PUSH1 0x80 DUP8 ADD PUSH3 0x277 JUMP JUMPDEST SWAP1 POP SWAP3 SWAP6 POP SWAP3 SWAP6 SWAP1 SWAP4 POP JUMP JUMPDEST PUSH1 0x80 MLOAD PUSH1 0xA0 MLOAD PUSH2 0x236B PUSH3 0x326 PUSH1 0x0 CODECOPY PUSH1 0x0 DUP2 DUP2 PUSH2 0x21B ADD MSTORE PUSH2 0xF40 ADD MSTORE PUSH1 0x0 DUP2 DUP2 PUSH2 0x387 ADD MSTORE PUSH2 0xF1D ADD MSTORE PUSH2 0x236B PUSH1 0x0 RETURN INVALID PUSH1 0x80 PUSH1 0x40 MSTORE CALLVALUE DUP1 ISZERO PUSH2 0x10 JUMPI PUSH1 0x0 DUP1 REVERT JUMPDEST POP PUSH1 0x4 CALLDATASIZE LT PUSH2 0x211 JUMPI PUSH1 0x0 CALLDATALOAD PUSH1 0xE0 SHR DUP1 PUSH4 0x7687DD49 GT PUSH2 0x125 JUMPI DUP1 PUSH4 0xA4EB718C GT PUSH2 0xAD JUMPI DUP1 PUSH4 0xDE40A4A9 GT PUSH2 0x7C JUMPI DUP1 PUSH4 0xDE40A4A9 EQ PUSH2 0x4FA JUMPI DUP1 PUSH4 0xDE6ADCE4 EQ PUSH2 0x50D JUMPI DUP1 PUSH4 0xF0F44260 EQ PUSH2 0x515 JUMPI DUP1 PUSH4 0xF2FDE38B EQ PUSH2 0x528 JUMPI DUP1 PUSH4 0xFEA9B572 EQ PUSH2 0x53B JUMPI PUSH1 0x0 DUP1 REVERT JUMPDEST DUP1 PUSH4 0xA4EB718C EQ PUSH2 0x4C4 JUMPI DUP1 PUSH4 0xA7FD35E7 EQ PUSH2 0x4D7 JUMPI DUP1 PUSH4 0xDB2E21BC EQ PUSH2 0x4DF JUMPI DUP1 PUSH4 0xDDB7FDA8 EQ PUSH2 0x4E7 JUMPI PUSH1 0x0 DUP1 REVERT JUMPDEST DUP1 PUSH4 0x83D5E726 GT PUSH2 0xF4 JUMPI DUP1 PUSH4 0x83D5E726 EQ PUSH2 0x46B JUMPI DUP1 PUSH4 0x8456CB59 EQ PUSH2 0x485 JUMPI DUP1 PUSH4 0x8DA5CB5B EQ PUSH2 0x48D JUMPI DUP1 PUSH4 0x8EA98117 EQ PUSH2 0x49E JUMPI DUP1 PUSH4 0x9ECCACF6 EQ PUSH2 0x4B1 JUMPI PUSH1 0x0 DUP1 REVERT JUMPDEST DUP1 PUSH4 0x7687DD49 EQ PUSH2 0x434 JUMPI DUP1 PUSH4 0x79BA5097 EQ PUSH2 0x447 JUMPI DUP1 PUSH4 0x7E95B523 EQ PUSH2 0x44F JUMPI DUP1 PUSH4 0x838F8D3C EQ PUSH2 0x458 JUMPI PUSH1 0x0 DUP1 REVERT JUMPDEST DUP1 PUSH4 0x51DC86A5 GT PUSH2 0x1A8 JUMPI DUP1 PUSH4 0x61D027B3 GT PUSH2 0x177 JUMPI DUP1 PUSH4 0x61D027B3 EQ PUSH2 0x3EC JUMPI DUP1 PUSH4 0x6540742F EQ PUSH2 0x3FF JUMPI DUP1 PUSH4 0x67F082B0 EQ PUSH2 0x408 JUMPI DUP1 PUSH4 0x719CE73E EQ PUSH2 0x423 JUMPI DUP1 PUSH4 0x72CF6E34 EQ PUSH2 0x42C JUMPI PUSH1 0x0 DUP1 REVERT JUMPDEST DUP1 PUSH4 0x51DC86A5 EQ PUSH2 0x382 JUMPI DUP1 PUSH4 0x57376198 EQ PUSH2 0x3A9 JUMPI DUP1 PUSH4 0x57FBD802 EQ PUSH2 0x3BC JUMPI DUP1 PUSH4 0x5C975ABB EQ PUSH2 0x3CF JUMPI PUSH1 0x0 DUP1 REVERT JUMPDEST DUP1 PUSH4 0x22AF00FA GT PUSH2 0x1E4 JUMPI DUP1 PUSH4 0x22AF00FA EQ PUSH2 0x29D JUMPI DUP1 PUSH4 0x24F74697 EQ PUSH2 0x323 JUMPI DUP1 PUSH4 0x3F4BA83A EQ PUSH2 0x348 JUMPI DUP1 PUSH4 0x43425E88 EQ PUSH2 0x350 JUMPI PUSH1 0x0 DUP1 REVERT JUMPDEST DUP1 PUSH4 0x30932BB EQ PUSH2 0x216 JUMPI DUP1 PUSH4 0x61E494F EQ PUSH2 0x250 JUMPI DUP1 PUSH4 0x186BA253 EQ PUSH2 0x275 JUMPI DUP1 PUSH4 0x1FE543E3 EQ PUSH2 0x28A JUMPI JUMPDEST PUSH1 0x0 DUP1 REVERT JUMPDEST PUSH2 0x23D PUSH32 0x0 DUP2 JUMP JUMPDEST PUSH1 0x40 MLOAD SWAP1 DUP2 MSTORE PUSH1 0x20 ADD JUMPDEST PUSH1 0x40 MLOAD DUP1 SWAP2 SUB SWAP1 RETURN JUMPDEST PUSH2 0x263 PUSH2 0x25E CALLDATASIZE PUSH1 0x4 PUSH2 0x1ED4 JUMP JUMPDEST PUSH2 0x543 JUMP JUMPDEST PUSH1 0x40 MLOAD PUSH2 0x247 SWAP7 SWAP6 SWAP5 SWAP4 SWAP3 SWAP2 SWAP1 PUSH2 0x1F2B JUMP JUMPDEST PUSH2 0x288 PUSH2 0x283 CALLDATASIZE PUSH1 0x4 PUSH2 0x1ED4 JUMP JUMPDEST PUSH2 0x612 JUMP JUMPDEST STOP JUMPDEST PUSH2 0x288 PUSH2 0x298 CALLDATASIZE PUSH1 0x4 PUSH2 0x1FBF JUMP JUMPDEST PUSH2 0x752 JUMP JUMPDEST PUSH2 0x2E9 PUSH2 0x2AB CALLDATASIZE PUSH1 0x4 PUSH2 0x1ED4 JUMP JUMPDEST PUSH1 0x9 PUSH1 0x20 MSTORE PUSH1 0x0 SWAP1 DUP2 MSTORE PUSH1 0x40 SWAP1 KECCAK256 DUP1 SLOAD PUSH1 0x1 DUP3 ADD SLOAD PUSH1 0x3 DUP4 ADD SLOAD PUSH1 0x4 SWAP1 SWAP4 ADD SLOAD PUSH1 0x1 PUSH1 0x1 PUSH1 0xA0 SHL SUB SWAP1 SWAP3 AND SWAP3 SWAP1 SWAP2 PUSH1 0xFF DUP1 DUP4 AND SWAP3 PUSH2 0x100 SWAP1 DIV AND SWAP1 DUP6 JUMP JUMPDEST PUSH1 0x40 DUP1 MLOAD PUSH1 0x1 PUSH1 0x1 PUSH1 0xA0 SHL SUB SWAP1 SWAP7 AND DUP7 MSTORE PUSH1 0x20 DUP7 ADD SWAP5 SWAP1 SWAP5 MSTORE SWAP2 ISZERO ISZERO SWAP3 DUP5 ADD SWAP3 SWAP1 SWAP3 MSTORE PUSH1 0xFF SWAP1 SWAP2 AND PUSH1 0x60 DUP4 ADD MSTORE PUSH1 0x80 DUP3 ADD MSTORE PUSH1 0xA0 ADD PUSH2 0x247 JUMP JUMPDEST PUSH1 0x6 SLOAD PUSH2 0x333 SWAP1 PUSH4 0xFFFFFFFF AND DUP2 JUMP JUMPDEST PUSH1 0x40 MLOAD PUSH4 0xFFFFFFFF SWAP1 SWAP2 AND DUP2 MSTORE PUSH1 0x20 ADD PUSH2 0x247 JUMP JUMPDEST PUSH2 0x288 PUSH2 0x7A2 JUMP JUMPDEST PUSH1 0x6 SLOAD PUSH2 0x36A SWAP1 PUSH1 0x1 PUSH1 0x20 SHL SWAP1 DIV PUSH1 0x1 PUSH1 0x1 PUSH1 0xA0 SHL SUB AND DUP2 JUMP JUMPDEST PUSH1 0x40 MLOAD PUSH1 0x1 PUSH1 0x1 PUSH1 0xA0 SHL SUB SWAP1 SWAP2 AND DUP2 MSTORE PUSH1 0x20 ADD PUSH2 0x247 JUMP JUMPDEST PUSH2 0x23D PUSH32 0x0 DUP2 JUMP JUMPDEST PUSH2 0x288 PUSH2 0x3B7 CALLDATASIZE PUSH1 0x4 PUSH2 0x2027 JUMP JUMPDEST PUSH2 0x7B4 JUMP JUMPDEST PUSH2 0x23D PUSH2 0x3CA CALLDATASIZE PUSH1 0x4 PUSH2 0x2062 JUMP JUMPDEST PUSH2 0x9F3 JUMP JUMPDEST PUSH1 0x2 SLOAD PUSH1 0x1 PUSH1 0xA0 SHL SWAP1 DIV PUSH1 0xFF AND PUSH1 0x40 MLOAD SWAP1 ISZERO ISZERO DUP2 MSTORE PUSH1 0x20 ADD PUSH2 0x247 JUMP JUMPDEST PUSH1 0x7 SLOAD PUSH2 0x36A SWAP1 PUSH1 0x1 PUSH1 0x1 PUSH1 0xA0 SHL SUB AND DUP2 JUMP JUMPDEST PUSH2 0x23D PUSH1 0x4 SLOAD DUP2 JUMP JUMPDEST PUSH2 0x410 PUSH1 0x3 DUP2 JUMP JUMPDEST PUSH1 0x40 MLOAD PUSH2 0xFFFF SWAP1 SWAP2 AND DUP2 MSTORE PUSH1 0x20 ADD PUSH2 0x247 JUMP JUMPDEST PUSH2 0x23D PUSH1 0x8 SLOAD DUP2 JUMP JUMPDEST PUSH2 0x333 PUSH1 0x1 DUP2 JUMP JUMPDEST PUSH2 0x288 PUSH2 0x442 CALLDATASIZE PUSH1 0x4 PUSH2 0x207E JUMP JUMPDEST PUSH2 0xA74 JUMP JUMPDEST PUSH2 0x288 PUSH2 0xBB4 JUMP JUMPDEST PUSH2 0x23D PUSH1 0x5 SLOAD DUP2 JUMP JUMPDEST PUSH2 0x23D PUSH2 0x466 CALLDATASIZE PUSH1 0x4 PUSH2 0x1FBF JUMP JUMPDEST PUSH2 0xC5E JUMP JUMPDEST PUSH2 0x473 PUSH1 0xA DUP2 JUMP JUMPDEST PUSH1 0x40 MLOAD PUSH1 0xFF SWAP1 SWAP2 AND DUP2 MSTORE PUSH1 0x20 ADD PUSH2 0x247 JUMP JUMPDEST PUSH2 0x288 PUSH2 0x1184 JUMP JUMPDEST PUSH1 0x0 SLOAD PUSH1 0x1 PUSH1 0x1 PUSH1 0xA0 SHL SUB AND PUSH2 0x36A JUMP JUMPDEST PUSH2 0x288 PUSH2 0x4AC CALLDATASIZE PUSH1 0x4 PUSH2 0x20A0 JUMP JUMPDEST PUSH2 0x1194 JUMP JUMPDEST PUSH1 0x2 SLOAD PUSH2 0x36A SWAP1 PUSH1 0x1 PUSH1 0x1 PUSH1 0xA0 SHL SUB AND DUP2 JUMP JUMPDEST PUSH2 0x288 PUSH2 0x4D2 CALLDATASIZE PUSH1 0x4 PUSH2 0x20BB JUMP JUMPDEST PUSH2 0x1287 JUMP JUMPDEST PUSH2 0x473 PUSH1 0x5A DUP2 JUMP JUMPDEST PUSH2 0x288 PUSH2 0x1372 JUMP JUMPDEST PUSH2 0x288 PUSH2 0x4F5 CALLDATASIZE PUSH1 0x4 PUSH2 0x1ED4 JUMP JUMPDEST PUSH2 0x1550 JUMP JUMPDEST PUSH2 0x288 PUSH2 0x508 CALLDATASIZE PUSH1 0x4 PUSH2 0x20A0 JUMP JUMPDEST PUSH2 0x16CB JUMP JUMPDEST PUSH2 0x473 PUSH1 0x6 DUP2 JUMP JUMPDEST PUSH2 0x288 PUSH2 0x523 CALLDATASIZE PUSH1 0x4 PUSH2 0x20A0 JUMP JUMPDEST PUSH2 0x1759 JUMP JUMPDEST PUSH2 0x288 PUSH2 0x536 CALLDATASIZE PUSH1 0x4 PUSH2 0x20A0 JUMP JUMPDEST PUSH2 0x17AA JUMP JUMPDEST PUSH2 0x473 PUSH1 0x63 DUP2 JUMP JUMPDEST PUSH1 0x0 DUP2 DUP2 MSTORE PUSH1 0x9 PUSH1 0x20 SWAP1 DUP2 MSTORE PUSH1 0x40 DUP1 DUP4 KECCAK256 DUP1 SLOAD PUSH1 0x1 DUP3 ADD SLOAD PUSH1 0x3 DUP4 ADD SLOAD PUSH1 0x4 DUP5 ADD SLOAD PUSH1 0x2 DUP6 ADD DUP1 SLOAD DUP8 MLOAD DUP2 DUP11 MUL DUP2 ADD DUP11 ADD SWAP1 SWAP9 MSTORE DUP1 DUP9 MSTORE DUP10 SWAP9 PUSH1 0x60 SWAP9 DUP11 SWAP9 DUP10 SWAP9 DUP10 SWAP9 SWAP2 SWAP8 PUSH1 0x1 PUSH1 0x1 PUSH1 0xA0 SHL SUB SWAP1 SWAP2 AND SWAP7 SWAP2 SWAP6 SWAP5 PUSH1 0xFF DUP1 DUP4 AND SWAP6 PUSH2 0x100 SWAP1 SWAP4 DIV AND SWAP4 SWAP2 DUP7 SWAP2 SWAP1 DUP4 ADD DUP3 DUP3 DUP1 ISZERO PUSH2 0x5F5 JUMPI PUSH1 0x20 MUL DUP3 ADD SWAP2 SWAP1 PUSH1 0x0 MSTORE PUSH1 0x20 PUSH1 0x0 KECCAK256 SWAP1 PUSH1 0x0 SWAP1 JUMPDEST DUP3 SLOAD PUSH2 0x100 DUP4 SWAP1 EXP SWAP1 DIV PUSH1 0xFF AND DUP2 MSTORE PUSH1 0x20 PUSH1 0x1 SWAP3 DUP4 ADD DUP2 DUP2 DIV SWAP5 DUP6 ADD SWAP5 SWAP1 SWAP4 SUB SWAP1 SWAP3 MUL SWAP2 ADD DUP1 DUP5 GT PUSH2 0x5C6 JUMPI SWAP1 POP JUMPDEST POP POP POP POP POP SWAP4 POP SWAP7 POP SWAP7 POP SWAP7 POP SWAP7 POP SWAP7 POP SWAP7 POP POP SWAP2 SWAP4 SWAP6 POP SWAP2 SWAP4 SWAP6 JUMP JUMPDEST PUSH2 0x61A PUSH2 0x17BE JUMP JUMPDEST PUSH1 0x0 DUP2 GT PUSH2 0x66F JUMPI PUSH1 0x40 MLOAD PUSH3 0x461BCD PUSH1 0xE5 SHL DUP2 MSTORE PUSH1 0x20 PUSH1 0x4 DUP3 ADD MSTORE PUSH1 0x1D PUSH1 0x24 DUP3 ADD MSTORE PUSH32 0x416D6F756E74206D7573742062652067726561746572207468616E2030000000 PUSH1 0x44 DUP3 ADD MSTORE PUSH1 0x64 ADD JUMPDEST PUSH1 0x40 MLOAD DUP1 SWAP2 SUB SWAP1 REVERT JUMPDEST PUSH1 0x6 SLOAD PUSH1 0x40 MLOAD PUSH4 0x23B872DD PUSH1 0xE0 SHL DUP2 MSTORE CALLER PUSH1 0x4 DUP3 ADD MSTORE ADDRESS PUSH1 0x24 DUP3 ADD MSTORE PUSH1 0x44 DUP2 ADD DUP4 SWAP1 MSTORE PUSH1 0x0 SWAP2 PUSH1 0x1 PUSH1 0x20 SHL SWAP1 DIV PUSH1 0x1 PUSH1 0x1 PUSH1 0xA0 SHL SUB AND SWAP1 PUSH4 0x23B872DD SWAP1 PUSH1 0x64 ADD PUSH1 0x20 PUSH1 0x40 MLOAD DUP1 DUP4 SUB DUP2 PUSH1 0x0 DUP8 GAS CALL ISZERO DUP1 ISZERO PUSH2 0x6CE JUMPI RETURNDATASIZE PUSH1 0x0 DUP1 RETURNDATACOPY RETURNDATASIZE PUSH1 0x0 REVERT JUMPDEST POP POP POP POP PUSH1 0x40 MLOAD RETURNDATASIZE PUSH1 0x1F NOT PUSH1 0x1F DUP3 ADD AND DUP3 ADD DUP1 PUSH1 0x40 MSTORE POP DUP2 ADD SWAP1 PUSH2 0x6F2 SWAP2 SWAP1 PUSH2 0x20E1 JUMP JUMPDEST SWAP1 POP DUP1 PUSH2 0x712 JUMPI PUSH1 0x40 MLOAD PUSH4 0x12171D83 PUSH1 0xE3 SHL DUP2 MSTORE PUSH1 0x4 ADD PUSH1 0x40 MLOAD DUP1 SWAP2 SUB SWAP1 REVERT JUMPDEST DUP2 PUSH1 0x8 PUSH1 0x0 DUP3 DUP3 SLOAD PUSH2 0x724 SWAP2 SWAP1 PUSH2 0x2119 JUMP JUMPDEST SWAP1 SWAP2 SSTORE POP POP PUSH1 0x8 SLOAD PUSH1 0x40 MLOAD SWAP1 DUP2 MSTORE PUSH1 0x0 DUP1 MLOAD PUSH1 0x20 PUSH2 0x2316 DUP4 CODECOPY DUP2 MLOAD SWAP2 MSTORE SWAP1 PUSH1 0x20 ADD JUMPDEST PUSH1 0x40 MLOAD DUP1 SWAP2 SUB SWAP1 LOG1 POP POP JUMP JUMPDEST PUSH1 0x2 SLOAD PUSH1 0x1 PUSH1 0x1 PUSH1 0xA0 SHL SUB AND CALLER EQ PUSH2 0x792 JUMPI PUSH1 0x2 SLOAD PUSH1 0x40 MLOAD PUSH4 0x73E64FD PUSH1 0xE2 SHL DUP2 MSTORE CALLER PUSH1 0x4 DUP3 ADD MSTORE PUSH1 0x1 PUSH1 0x1 PUSH1 0xA0 SHL SUB SWAP1 SWAP2 AND PUSH1 0x24 DUP3 ADD MSTORE PUSH1 0x44 ADD PUSH2 0x666 JUMP JUMPDEST PUSH2 0x79D DUP4 DUP4 DUP4 PUSH2 0x1811 JUMP JUMPDEST POP POP POP JUMP JUMPDEST PUSH2 0x7AA PUSH2 0x17BE JUMP JUMPDEST PUSH2 0x7B2 PUSH2 0x1B71 JUMP JUMPDEST JUMP JUMPDEST PUSH2 0x7BC PUSH2 0x17BE JUMP JUMPDEST PUSH1 0x6 SLOAD PUSH1 0x1 PUSH1 0x1 PUSH1 0xA0 SHL SUB PUSH1 0x1 PUSH1 0x20 SHL SWAP1 SWAP2 DIV DUP2 AND SWAP1 DUP4 AND SUB PUSH2 0x821 JUMPI PUSH1 0x40 MLOAD PUSH3 0x461BCD PUSH1 0xE5 SHL DUP2 MSTORE PUSH1 0x20 PUSH1 0x4 DUP3 ADD MSTORE PUSH1 0x18 PUSH1 0x24 DUP3 ADD MSTORE PUSH32 0x43616E6E6F74207265736375652067616D6520746F6B656E0000000000000000 PUSH1 0x44 DUP3 ADD MSTORE PUSH1 0x64 ADD PUSH2 0x666 JUMP JUMPDEST PUSH1 0x40 MLOAD PUSH4 0x70A08231 PUSH1 0xE0 SHL DUP2 MSTORE ADDRESS PUSH1 0x4 DUP3 ADD MSTORE DUP3 SWAP1 DUP3 SWAP1 PUSH1 0x1 PUSH1 0x1 PUSH1 0xA0 SHL SUB DUP4 AND SWAP1 PUSH4 0x70A08231 SWAP1 PUSH1 0x24 ADD PUSH1 0x20 PUSH1 0x40 MLOAD DUP1 DUP4 SUB DUP2 DUP7 GAS STATICCALL ISZERO DUP1 ISZERO PUSH2 0x869 JUMPI RETURNDATASIZE PUSH1 0x0 DUP1 RETURNDATACOPY RETURNDATASIZE PUSH1 0x0 REVERT JUMPDEST POP POP POP POP PUSH1 0x40 MLOAD RETURNDATASIZE PUSH1 0x1F NOT PUSH1 0x1F DUP3 ADD AND DUP3 ADD DUP1 PUSH1 0x40 MSTORE POP DUP2 ADD SWAP1 PUSH2 0x88D SWAP2 SWAP1 PUSH2 0x212C JUMP JUMPDEST LT ISZERO PUSH2 0x8D2 JUMPI PUSH1 0x40 MLOAD PUSH3 0x461BCD PUSH1 0xE5 SHL DUP2 MSTORE PUSH1 0x20 PUSH1 0x4 DUP3 ADD MSTORE PUSH1 0x14 PUSH1 0x24 DUP3 ADD MSTORE PUSH20 0x496E73756666696369656E742062616C616E6365 PUSH1 0x60 SHL PUSH1 0x44 DUP3 ADD MSTORE PUSH1 0x64 ADD PUSH2 0x666 JUMP JUMPDEST PUSH1 0x0 DUP2 PUSH1 0x1 PUSH1 0x1 PUSH1 0xA0 SHL SUB AND PUSH4 0xA9059CBB PUSH2 0x8F5 PUSH1 0x0 SLOAD PUSH1 0x1 PUSH1 0x1 PUSH1 0xA0 SHL SUB AND SWAP1 JUMP JUMPDEST PUSH1 0x40 MLOAD PUSH1 0x1 PUSH1 0x1 PUSH1 0xE0 SHL SUB NOT PUSH1 0xE0 DUP5 SWAP1 SHL AND DUP2 MSTORE PUSH1 0x1 PUSH1 0x1 PUSH1 0xA0 SHL SUB SWAP1 SWAP2 AND PUSH1 0x4 DUP3 ADD MSTORE PUSH1 0x24 DUP2 ADD DUP7 SWAP1 MSTORE PUSH1 0x44 ADD PUSH1 0x20 PUSH1 0x40 MLOAD DUP1 DUP4 SUB DUP2 PUSH1 0x0 DUP8 GAS CALL ISZERO DUP1 ISZERO PUSH2 0x942 JUMPI RETURNDATASIZE PUSH1 0x0 DUP1 RETURNDATACOPY RETURNDATASIZE PUSH1 0x0 REVERT JUMPDEST POP POP POP POP PUSH1 0x40 MLOAD RETURNDATASIZE PUSH1 0x1F NOT PUSH1 0x1F DUP3 ADD AND DUP3 ADD DUP1 PUSH1 0x40 MSTORE POP DUP2 ADD SWAP1 PUSH2 0x966 SWAP2 SWAP1 PUSH2 0x20E1 JUMP JUMPDEST SWAP1 POP DUP1 PUSH2 0x9AB JUMPI PUSH1 0x40 MLOAD PUSH3 0x461BCD PUSH1 0xE5 SHL DUP2 MSTORE PUSH1 0x20 PUSH1 0x4 DUP3 ADD MSTORE PUSH1 0x13 PUSH1 0x24 DUP3 ADD MSTORE PUSH19 0x151BDAD95B881C995CD8DD594819985A5B1959 PUSH1 0x6A SHL PUSH1 0x44 DUP3 ADD MSTORE PUSH1 0x64 ADD PUSH2 0x666 JUMP JUMPDEST PUSH1 0x40 DUP1 MLOAD PUSH1 0x1 PUSH1 0x1 PUSH1 0xA0 SHL SUB DUP7 AND DUP2 MSTORE PUSH1 0x20 DUP2 ADD DUP6 SWAP1 MSTORE PUSH32 0x68F67DE89E96B13A3EA058AF5FD44CC125EFCEB528482D539C7B43DB2FAA066E SWAP2 ADD PUSH1 0x40 MLOAD DUP1 SWAP2 SUB SWAP1 LOG1 POP POP POP POP JUMP JUMPDEST PUSH1 0x0 DUP3 PUSH1 0xFF AND PUSH1 0x6 SUB PUSH2 0xA12 JUMPI PUSH2 0xA0B DUP3 PUSH1 0x64 PUSH2 0x2145 JUMP JUMPDEST SWAP1 POP PUSH2 0xA6E JUMP JUMPDEST DUP3 PUSH1 0xFF AND PUSH1 0x5 SUB PUSH2 0xA28 JUMPI PUSH2 0xA0B DUP3 PUSH1 0x32 PUSH2 0x2145 JUMP JUMPDEST DUP3 PUSH1 0xFF AND PUSH1 0x4 SUB PUSH2 0xA3E JUMPI PUSH2 0xA0B DUP3 PUSH1 0x14 PUSH2 0x2145 JUMP JUMPDEST DUP3 PUSH1 0xFF AND PUSH1 0x3 SUB PUSH2 0xA54 JUMPI PUSH2 0xA0B DUP3 PUSH1 0xA PUSH2 0x2145 JUMP JUMPDEST DUP3 PUSH1 0xFF AND PUSH1 0x2 SUB PUSH2 0xA6A JUMPI PUSH2 0xA0B DUP3 PUSH1 0x5 PUSH2 0x2145 JUMP JUMPDEST POP PUSH1 0x0 JUMPDEST SWAP3 SWAP2 POP POP JUMP JUMPDEST PUSH2 0xA7C PUSH2 0x17BE JUMP JUMPDEST PUSH1 0x0 DUP3 GT PUSH2 0xACC JUMPI PUSH1 0x40 MLOAD PUSH3 0x461BCD PUSH1 0xE5 SHL DUP2 MSTORE PUSH1 0x20 PUSH1 0x4 DUP3 ADD MSTORE PUSH1 0x1E PUSH1 0x24 DUP3 ADD MSTORE PUSH32 0x4D696E20626574206D7573742062652067726561746572207468616E20300000 PUSH1 0x44 DUP3 ADD MSTORE PUSH1 0x64 ADD PUSH2 0x666 JUMP JUMPDEST DUP2 DUP2 GT PUSH2 0xB27 JUMPI PUSH1 0x40 MLOAD PUSH3 0x461BCD PUSH1 0xE5 SHL DUP2 MSTORE PUSH1 0x20 PUSH1 0x4 DUP3 ADD MSTORE PUSH1 0x24 DUP1 DUP3 ADD MSTORE PUSH32 0x4D617820626574206D7573742062652067726561746572207468616E206D696E PUSH1 0x44 DUP3 ADD MSTORE PUSH4 0x818995D PUSH1 0xE2 SHL PUSH1 0x64 DUP3 ADD MSTORE PUSH1 0x84 ADD PUSH2 0x666 JUMP JUMPDEST PUSH10 0xD3C21BCECCEDA1000000 DUP2 GT ISZERO PUSH2 0xB74 JUMPI PUSH1 0x40 MLOAD PUSH3 0x461BCD PUSH1 0xE5 SHL DUP2 MSTORE PUSH1 0x20 PUSH1 0x4 DUP3 ADD MSTORE PUSH1 0x10 PUSH1 0x24 DUP3 ADD MSTORE PUSH16 0x9AC2F040C4CAE840E8DEDE40D0D2CED PUSH1 0x83 SHL PUSH1 0x44 DUP3 ADD MSTORE PUSH1 0x64 ADD PUSH2 0x666 JUMP JUMPDEST PUSH1 0x4 DUP3 SWAP1 SSTORE PUSH1 0x5 DUP2 SWAP1 SSTORE PUSH1 0x40 DUP1 MLOAD DUP4 DUP2 MSTORE PUSH1 0x20 DUP2 ADD DUP4 SWAP1 MSTORE PUSH32 0xF483A8CF66FADBA78E10F404E5F1639EB2A336535936E1AF01F333D1215378D1 SWAP2 ADD PUSH2 0x746 JUMP JUMPDEST PUSH1 0x1 SLOAD PUSH1 0x1 PUSH1 0x1 PUSH1 0xA0 SHL SUB AND CALLER EQ PUSH2 0xC07 JUMPI PUSH1 0x40 MLOAD PUSH3 0x461BCD PUSH1 0xE5 SHL DUP2 MSTORE PUSH1 0x20 PUSH1 0x4 DUP3 ADD MSTORE PUSH1 0x16 PUSH1 0x24 DUP3 ADD MSTORE PUSH22 0x26BAB9BA10313290383937B837B9B2B21037BBB732B9 PUSH1 0x51 SHL PUSH1 0x44 DUP3 ADD MSTORE PUSH1 0x64 ADD PUSH2 0x666 JUMP JUMPDEST PUSH1 0x0 DUP1 SLOAD CALLER PUSH1 0x1 PUSH1 0x1 PUSH1 0xA0 SHL SUB NOT DUP1 DUP4 AND DUP3 OR DUP5 SSTORE PUSH1 0x1 DUP1 SLOAD SWAP1 SWAP2 AND SWAP1 SSTORE PUSH1 0x40 MLOAD PUSH1 0x1 PUSH1 0x1 PUSH1 0xA0 SHL SUB SWAP1 SWAP3 AND SWAP3 SWAP1 SWAP2 DUP4 SWAP2 PUSH32 0x8BE0079C531659141344CD1FD0A4F28419497F9722A3DAAFE3B4186F6B6457E0 SWAP2 LOG3 POP JUMP JUMPDEST PUSH1 0x0 PUSH2 0xC68 PUSH2 0x1BC6 JUMP JUMPDEST PUSH2 0xC70 PUSH2 0x1C1F JUMP JUMPDEST PUSH1 0x4 SLOAD DUP5 LT DUP1 PUSH2 0xC81 JUMPI POP PUSH1 0x5 SLOAD DUP5 GT JUMPDEST ISZERO PUSH2 0xCB5 JUMPI PUSH1 0x4 DUP1 SLOAD PUSH1 0x5 SLOAD PUSH1 0x40 MLOAD PUSH4 0x14DE87A5 PUSH1 0xE1 SHL DUP2 MSTORE SWAP3 DUP4 ADD DUP8 SWAP1 MSTORE PUSH1 0x24 DUP4 ADD SWAP2 SWAP1 SWAP2 MSTORE PUSH1 0x44 DUP3 ADD MSTORE PUSH1 0x64 ADD PUSH2 0x666 JUMP JUMPDEST PUSH1 0x6 DUP3 EQ PUSH2 0xCD9 JUMPI PUSH1 0x40 MLOAD PUSH1 0x1 PUSH3 0xF548BF PUSH1 0xE0 SHL SUB NOT DUP2 MSTORE PUSH1 0x4 ADD PUSH1 0x40 MLOAD DUP1 SWAP2 SUB SWAP1 REVERT JUMPDEST PUSH1 0x0 DUP1 JUMPDEST DUP4 DUP2 LT ISZERO PUSH2 0xD8A JUMPI PUSH1 0x0 DUP6 DUP6 DUP4 DUP2 DUP2 LT PUSH2 0xCF9 JUMPI PUSH2 0xCF9 PUSH2 0x215C JUMP JUMPDEST SWAP1 POP PUSH1 0x20 MUL ADD PUSH1 0x20 DUP2 ADD SWAP1 PUSH2 0xD0E SWAP2 SWAP1 PUSH2 0x2172 JUMP JUMPDEST SWAP1 POP PUSH1 0xFF DUP2 AND ISZERO DUP1 PUSH2 0xD23 JUMPI POP PUSH1 0x63 PUSH1 0xFF DUP3 AND GT JUMPDEST ISZERO PUSH2 0xD45 JUMPI PUSH1 0x40 MLOAD PUSH3 0x307CD1 PUSH1 0xE2 SHL DUP2 MSTORE PUSH1 0xFF DUP3 AND PUSH1 0x4 DUP3 ADD MSTORE PUSH1 0x24 ADD PUSH2 0x666 JUMP JUMPDEST PUSH1 0x1 PUSH1 0xFF DUP3 AND SHL DUP4 DUP2 AND ISZERO PUSH2 0xD72 JUMPI PUSH1 0x40 MLOAD PUSH4 0xFCCC6EA7 PUSH1 0xE0 SHL DUP2 MSTORE PUSH1 0xFF DUP4 AND PUSH1 0x4 DUP3 ADD MSTORE PUSH1 0x24 ADD PUSH2 0x666 JUMP JUMPDEST SWAP3 SWAP1 SWAP3 OR SWAP2 POP DUP1 PUSH2 0xD82 DUP2 PUSH2 0x218D JUMP JUMPDEST SWAP2 POP POP PUSH2 0xCDD JUMP JUMPDEST POP PUSH1 0x6 SLOAD PUSH1 0x40 MLOAD PUSH4 0x23B872DD PUSH1 0xE0 SHL DUP2 MSTORE CALLER PUSH1 0x4 DUP3 ADD MSTORE ADDRESS PUSH1 0x24 DUP3 ADD MSTORE PUSH1 0x44 DUP2 ADD DUP8 SWAP1 MSTORE PUSH1 0x0 SWAP2 PUSH1 0x1 PUSH1 0x20 SHL SWAP1 DIV PUSH1 0x1 PUSH1 0x1 PUSH1 0xA0 SHL SUB AND SWAP1 PUSH4 0x23B872DD SWAP1 PUSH1 0x64 ADD PUSH1 0x20 PUSH1 0x40 MLOAD DUP1 DUP4 SUB DUP2 PUSH1 0x0 DUP8 GAS CALL ISZERO DUP1 ISZERO PUSH2 0xDEA JUMPI RETURNDATASIZE PUSH1 0x0 DUP1 RETURNDATACOPY RETURNDATASIZE PUSH1 0x0 REVERT JUMPDEST POP POP POP POP PUSH1 0x40 MLOAD RETURNDATASIZE PUSH1 0x1F NOT PUSH1 0x1F DUP3 ADD AND DUP3 ADD DUP1 PUSH1 0x40 MSTORE POP DUP2 ADD SWAP1 PUSH2 0xE0E SWAP2 SWAP1 PUSH2 0x20E1 JUMP JUMPDEST SWAP1 POP DUP1 PUSH2 0xE2E JUMPI PUSH1 0x40 MLOAD PUSH4 0x12171D83 PUSH1 0xE3 SHL DUP2 MSTORE PUSH1 0x4 ADD PUSH1 0x40 MLOAD DUP1 SWAP2 SUB SWAP1 REVERT JUMPDEST PUSH1 0x0 PUSH1 0x64 PUSH2 0xE3D PUSH1 0x5A DUP10 PUSH2 0x2145 JUMP JUMPDEST PUSH2 0xE47 SWAP2 SWAP1 PUSH2 0x21BC JUMP JUMPDEST SWAP1 POP PUSH1 0x0 PUSH2 0xE55 DUP3 DUP10 PUSH2 0x21D0 JUMP JUMPDEST SWAP1 POP DUP2 PUSH1 0x8 PUSH1 0x0 DUP3 DUP3 SLOAD PUSH2 0xE69 SWAP2 SWAP1 PUSH2 0x2119 JUMP JUMPDEST SWAP1 SWAP2 SSTORE POP POP PUSH1 0x6 SLOAD PUSH1 0x7 SLOAD PUSH1 0x40 MLOAD PUSH4 0xA9059CBB PUSH1 0xE0 SHL DUP2 MSTORE PUSH1 0x1 PUSH1 0x1 PUSH1 0xA0 SHL SUB SWAP2 DUP3 AND PUSH1 0x4 DUP3 ADD MSTORE PUSH1 0x24 DUP2 ADD DUP5 SWAP1 MSTORE PUSH1 0x1 PUSH1 0x20 SHL SWAP1 SWAP3 DIV AND SWAP1 PUSH4 0xA9059CBB SWAP1 PUSH1 0x44 ADD PUSH1 0x20 PUSH1 0x40 MLOAD DUP1 DUP4 SUB DUP2 PUSH1 0x0 DUP8 GAS CALL ISZERO DUP1 ISZERO PUSH2 0xECA JUMPI RETURNDATASIZE PUSH1 0x0 DUP1 RETURNDATACOPY RETURNDATASIZE PUSH1 0x0 REVERT JUMPDEST POP POP POP POP PUSH1 0x40 MLOAD RETURNDATASIZE PUSH1 0x1F NOT PUSH1 0x1F DUP3 ADD AND DUP3 ADD DUP1 PUSH1 0x40 MSTORE POP DUP2 ADD SWAP1 PUSH2 0xEEE SWAP2 SWAP1 PUSH2 0x20E1 JUMP JUMPDEST SWAP3 POP DUP3 PUSH2 0xF0E JUMPI PUSH1 0x40 MLOAD PUSH4 0x12171D83 PUSH1 0xE3 SHL DUP2 MSTORE PUSH1 0x4 ADD PUSH1 0x40 MLOAD DUP1 SWAP2 SUB SWAP1 REVERT JUMPDEST PUSH1 0x2 SLOAD PUSH1 0x40 DUP1 MLOAD PUSH1 0xC0 DUP2 ADD DUP3 MSTORE PUSH32 0x0 DUP2 MSTORE PUSH32 0x0 PUSH1 0x20 DUP1 DUP4 ADD SWAP2 SWAP1 SWAP2 MSTORE PUSH1 0x3 DUP3 DUP5 ADD MSTORE PUSH1 0x6 SLOAD PUSH4 0xFFFFFFFF AND PUSH1 0x60 DUP4 ADD MSTORE PUSH1 0x1 PUSH1 0x80 DUP4 ADD MSTORE DUP3 MLOAD SWAP1 DUP2 ADD SWAP1 SWAP3 MSTORE PUSH1 0x0 DUP1 DUP4 MSTORE SWAP3 PUSH1 0x1 PUSH1 0x1 PUSH1 0xA0 SHL SUB AND SWAP2 PUSH4 0x9B1C385E SWAP2 SWAP1 PUSH1 0xA0 DUP3 ADD SWAP1 PUSH2 0xFB0 SWAP1 PUSH2 0x1C6C JUMP JUMPDEST DUP2 MSTORE POP PUSH1 0x40 MLOAD DUP3 PUSH4 0xFFFFFFFF AND PUSH1 0xE0 SHL DUP2 MSTORE PUSH1 0x4 ADD PUSH2 0xFCF SWAP2 SWAP1 PUSH2 0x21E3 JUMP JUMPDEST PUSH1 0x20 PUSH1 0x40 MLOAD DUP1 DUP4 SUB DUP2 PUSH1 0x0 DUP8 GAS CALL ISZERO DUP1 ISZERO PUSH2 0xFEE JUMPI RETURNDATASIZE PUSH1 0x0 DUP1 RETURNDATACOPY RETURNDATASIZE PUSH1 0x0 REVERT JUMPDEST POP POP POP POP PUSH1 0x40 MLOAD RETURNDATASIZE PUSH1 0x1F NOT PUSH1 0x1F DUP3 ADD AND DUP3 ADD DUP1 PUSH1 0x40 MSTORE POP DUP2 ADD SWAP1 PUSH2 0x1012 SWAP2 SWAP1 PUSH2 0x212C JUMP JUMPDEST SWAP1 POP PUSH1 0x40 MLOAD DUP1 PUSH1 0xC0 ADD PUSH1 0x40 MSTORE DUP1 CALLER PUSH1 0x1 PUSH1 0x1 PUSH1 0xA0 SHL SUB AND DUP2 MSTORE PUSH1 0x20 ADD DUP11 DUP2 MSTORE PUSH1 0x20 ADD DUP10 DUP10 DUP1 DUP1 PUSH1 0x20 MUL PUSH1 0x20 ADD PUSH1 0x40 MLOAD SWAP1 DUP2 ADD PUSH1 0x40 MSTORE DUP1 SWAP4 SWAP3 SWAP2 SWAP1 DUP2 DUP2 MSTORE PUSH1 0x20 ADD DUP4 DUP4 PUSH1 0x20 MUL DUP1 DUP3 DUP5 CALLDATACOPY PUSH1 0x0 SWAP3 ADD DUP3 SWAP1 MSTORE POP SWAP4 DUP6 MSTORE POP POP POP PUSH1 0x20 DUP1 DUP4 ADD DUP3 SWAP1 MSTORE PUSH1 0x40 DUP1 DUP5 ADD DUP4 SWAP1 MSTORE PUSH1 0x60 SWAP1 SWAP4 ADD DUP3 SWAP1 MSTORE DUP5 DUP3 MSTORE PUSH1 0x9 DUP2 MSTORE SWAP1 DUP3 SWAP1 KECCAK256 DUP4 MLOAD DUP2 SLOAD PUSH1 0x1 PUSH1 0x1 PUSH1 0xA0 SHL SUB NOT AND PUSH1 0x1 PUSH1 0x1 PUSH1 0xA0 SHL SUB SWAP1 SWAP2 AND OR DUP2 SSTORE DUP4 DUP3 ADD MLOAD PUSH1 0x1 DUP3 ADD SSTORE SWAP2 DUP4 ADD MLOAD DUP1 MLOAD PUSH2 0x10C7 SWAP3 PUSH1 0x2 DUP6 ADD SWAP3 ADD SWAP1 PUSH2 0x1E19 JUMP JUMPDEST POP PUSH1 0x60 DUP3 ADD MLOAD PUSH1 0x3 DUP3 ADD DUP1 SLOAD PUSH1 0x80 DUP6 ADD MLOAD PUSH1 0xFF AND PUSH2 0x100 MUL PUSH2 0xFF00 NOT SWAP4 ISZERO ISZERO SWAP4 SWAP1 SWAP4 AND PUSH2 0xFFFF NOT SWAP1 SWAP2 AND OR SWAP2 SWAP1 SWAP2 OR SWAP1 SSTORE PUSH1 0xA0 SWAP1 SWAP2 ADD MLOAD PUSH1 0x4 SWAP1 SWAP2 ADD SSTORE PUSH1 0x40 MLOAD CALLER SWAP1 DUP3 SWAP1 PUSH32 0xD60A2FC8819207EB21F78D0AE6D3C0A97CC7A3E76EB20E4D8C3049023F9DA306 SWAP1 PUSH2 0x113C SWAP1 DUP14 SWAP1 DUP14 SWAP1 DUP14 SWAP1 PUSH2 0x227F JUMP JUMPDEST PUSH1 0x40 MLOAD DUP1 SWAP2 SUB SWAP1 LOG3 PUSH1 0x0 DUP1 MLOAD PUSH1 0x20 PUSH2 0x2316 DUP4 CODECOPY DUP2 MLOAD SWAP2 MSTORE PUSH1 0x8 SLOAD PUSH1 0x40 MLOAD PUSH2 0x1165 SWAP2 DUP2 MSTORE PUSH1 0x20 ADD SWAP1 JUMP JUMPDEST PUSH1 0x40 MLOAD DUP1 SWAP2 SUB SWAP1 LOG1 SWAP5 POP POP POP POP POP PUSH2 0x117D PUSH1 0x1 PUSH1 0x3 SSTORE JUMP JUMPDEST SWAP4 SWAP3 POP POP POP JUMP JUMPDEST PUSH2 0x118C PUSH2 0x17BE JUMP JUMPDEST PUSH2 0x7B2 PUSH2 0x1CDD JUMP JUMPDEST PUSH1 0x0 SLOAD PUSH1 0x1 PUSH1 0x1 PUSH1 0xA0 SHL SUB AND CALLER EQ DUP1 ISZERO SWAP1 PUSH2 0x11BA JUMPI POP PUSH1 0x2 SLOAD PUSH1 0x1 PUSH1 0x1 PUSH1 0xA0 SHL SUB AND CALLER EQ ISZERO JUMPDEST ISZERO PUSH2 0x120B JUMPI CALLER PUSH2 0x11D2 PUSH1 0x0 SLOAD PUSH1 0x1 PUSH1 0x1 PUSH1 0xA0 SHL SUB AND SWAP1 JUMP JUMPDEST PUSH1 0x2 SLOAD PUSH1 0x40 MLOAD PUSH4 0x61DB9C1 PUSH1 0xE0 SHL DUP2 MSTORE PUSH1 0x1 PUSH1 0x1 PUSH1 0xA0 SHL SUB SWAP4 DUP5 AND PUSH1 0x4 DUP3 ADD MSTORE SWAP2 DUP4 AND PUSH1 0x24 DUP4 ADD MSTORE SWAP2 SWAP1 SWAP2 AND PUSH1 0x44 DUP3 ADD MSTORE PUSH1 0x64 ADD PUSH2 0x666 JUMP JUMPDEST PUSH1 0x1 PUSH1 0x1 PUSH1 0xA0 SHL SUB DUP2 AND PUSH2 0x1232 JUMPI PUSH1 0x40 MLOAD PUSH4 0xD92E233D PUSH1 0xE0 SHL DUP2 MSTORE PUSH1 0x4 ADD PUSH1 0x40 MLOAD DUP1 SWAP2 SUB SWAP1 REVERT JUMPDEST PUSH1 0x2 DUP1 SLOAD PUSH1 0x1 PUSH1 0x1 PUSH1 0xA0 SHL SUB NOT AND PUSH1 0x1 PUSH1 0x1 PUSH1 0xA0 SHL SUB DUP4 AND SWAP1 DUP2 OR SWAP1 SWAP2 SSTORE PUSH1 0x40 MLOAD SWAP1 DUP2 MSTORE PUSH32 0xD1A6A14209A385A964D036E404CB5CFB71F4000CDB03C9366292430787261BE6 SWAP1 PUSH1 0x20 ADD JUMPDEST PUSH1 0x40 MLOAD DUP1 SWAP2 SUB SWAP1 LOG1 POP JUMP JUMPDEST PUSH2 0x128F PUSH2 0x17BE JUMP JUMPDEST PUSH3 0x186A0 DUP2 PUSH4 0xFFFFFFFF AND LT ISZERO PUSH2 0x12DC JUMPI PUSH1 0x40 MLOAD PUSH3 0x461BCD PUSH1 0xE5 SHL DUP2 MSTORE PUSH1 0x20 PUSH1 0x4 DUP3 ADD MSTORE PUSH1 0x11 PUSH1 0x24 DUP3 ADD MSTORE PUSH17 0x476173206C696D697420746F6F206C6F77 PUSH1 0x78 SHL PUSH1 0x44 DUP3 ADD MSTORE PUSH1 0x64 ADD PUSH2 0x666 JUMP JUMPDEST PUSH3 0x4C4B40 DUP2 PUSH4 0xFFFFFFFF AND GT ISZERO PUSH2 0x132A JUMPI PUSH1 0x40 MLOAD PUSH3 0x461BCD PUSH1 0xE5 SHL DUP2 MSTORE PUSH1 0x20 PUSH1 0x4 DUP3 ADD MSTORE PUSH1 0x12 PUSH1 0x24 DUP3 ADD MSTORE PUSH18 0x8EC2E640D8D2DAD2E840E8DEDE40D0D2CED PUSH1 0x73 SHL PUSH1 0x44 DUP3 ADD MSTORE PUSH1 0x64 ADD PUSH2 0x666 JUMP JUMPDEST PUSH1 0x6 DUP1 SLOAD PUSH4 0xFFFFFFFF NOT AND PUSH4 0xFFFFFFFF DUP4 AND SWAP1 DUP2 OR SWAP1 SWAP2 SSTORE PUSH1 0x40 MLOAD SWAP1 DUP2 MSTORE PUSH32 0x25358B14CD4557629EE75BBCCEDEF47B9C0FE38C159233FB711B4C547692F889 SWAP1 PUSH1 0x20 ADD PUSH2 0x127C JUMP JUMPDEST PUSH2 0x137A PUSH2 0x17BE JUMP JUMPDEST PUSH1 0x6 SLOAD PUSH1 0x40 MLOAD PUSH4 0x70A08231 PUSH1 0xE0 SHL DUP2 MSTORE ADDRESS PUSH1 0x4 DUP3 ADD MSTORE PUSH1 0x0 SWAP2 PUSH1 0x1 PUSH1 0x20 SHL SWAP1 DIV PUSH1 0x1 PUSH1 0x1 PUSH1 0xA0 SHL SUB AND SWAP1 PUSH4 0x70A08231 SWAP1 PUSH1 0x24 ADD PUSH1 0x20 PUSH1 0x40 MLOAD DUP1 DUP4 SUB DUP2 DUP7 GAS STATICCALL ISZERO DUP1 ISZERO PUSH2 0x13CA JUMPI RETURNDATASIZE PUSH1 0x0 DUP1 RETURNDATACOPY RETURNDATASIZE PUSH1 0x0 REVERT JUMPDEST POP POP POP POP PUSH1 0x40 MLOAD RETURNDATASIZE PUSH1 0x1F NOT PUSH1 0x1F DUP3 ADD AND DUP3 ADD DUP1 PUSH1 0x40 MSTORE POP DUP2 ADD SWAP1 PUSH2 0x13EE SWAP2 SWAP1 PUSH2 0x212C JUMP JUMPDEST SWAP1 POP PUSH1 0x0 DUP2 GT PUSH2 0x1439 JUMPI PUSH1 0x40 MLOAD PUSH3 0x461BCD PUSH1 0xE5 SHL DUP2 MSTORE PUSH1 0x20 PUSH1 0x4 DUP3 ADD MSTORE PUSH1 0x16 PUSH1 0x24 DUP3 ADD MSTORE PUSH22 0x4E6F2062616C616E636520746F207769746864726177 PUSH1 0x50 SHL PUSH1 0x44 DUP3 ADD MSTORE PUSH1 0x64 ADD PUSH2 0x666 JUMP JUMPDEST PUSH1 0x6 SLOAD PUSH1 0x0 SWAP1 PUSH1 0x1 PUSH1 0x1 PUSH1 0xA0 SHL SUB PUSH1 0x1 PUSH1 0x20 SHL SWAP1 SWAP2 DIV AND PUSH4 0xA9059CBB PUSH2 0x1467 PUSH1 0x0 SLOAD PUSH1 0x1 PUSH1 0x1 PUSH1 0xA0 SHL SUB AND SWAP1 JUMP JUMPDEST PUSH1 0x40 MLOAD PUSH1 0x1 PUSH1 0x1 PUSH1 0xE0 SHL SUB NOT PUSH1 0xE0 DUP5 SWAP1 SHL AND DUP2 MSTORE PUSH1 0x1 PUSH1 0x1 PUSH1 0xA0 SHL SUB SWAP1 SWAP2 AND PUSH1 0x4 DUP3 ADD MSTORE PUSH1 0x24 DUP2 ADD DUP6 SWAP1 MSTORE PUSH1 0x44 ADD PUSH1 0x20 PUSH1 0x40 MLOAD DUP1 DUP4 SUB DUP2 PUSH1 0x0 DUP8 GAS CALL ISZERO DUP1 ISZERO PUSH2 0x14B4 JUMPI RETURNDATASIZE PUSH1 0x0 DUP1 RETURNDATACOPY RETURNDATASIZE PUSH1 0x0 REVERT JUMPDEST POP POP POP POP PUSH1 0x40 MLOAD RETURNDATASIZE PUSH1 0x1F NOT PUSH1 0x1F DUP3 ADD AND DUP3 ADD DUP1 PUSH1 0x40 MSTORE POP DUP2 ADD SWAP1 PUSH2 0x14D8 SWAP2 SWAP1 PUSH2 0x20E1 JUMP JUMPDEST SWAP1 POP DUP1 PUSH2 0x14F8 JUMPI PUSH1 0x40 MLOAD PUSH4 0x12171D83 PUSH1 0xE3 SHL DUP2 MSTORE PUSH1 0x4 ADD PUSH1 0x40 MLOAD DUP1 SWAP2 SUB SWAP1 REVERT JUMPDEST PUSH1 0x0 PUSH1 0x8 DUP2 SWAP1 SSTORE PUSH1 0x40 MLOAD SWAP1 DUP2 MSTORE PUSH1 0x0 DUP1 MLOAD PUSH1 0x20 PUSH2 0x2316 DUP4 CODECOPY DUP2 MLOAD SWAP2 MSTORE SWAP1 PUSH1 0x20 ADD PUSH1 0x40 MLOAD DUP1 SWAP2 SUB SWAP1 LOG1 PUSH1 0x40 MLOAD DUP3 DUP2 MSTORE PUSH32 0xCBBA13897C2AC3F7FDB11E857B1A5A5C47F51E3FBEFFA74D430F2B06177B45C0 SWAP1 PUSH1 0x20 ADD PUSH2 0x746 JUMP JUMPDEST PUSH2 0x1558 PUSH2 0x17BE JUMP JUMPDEST PUSH1 0x0 DUP2 GT PUSH2 0x15A8 JUMPI PUSH1 0x40 MLOAD PUSH3 0x461BCD PUSH1 0xE5 SHL DUP2 MSTORE PUSH1 0x20 PUSH1 0x4 DUP3 ADD MSTORE PUSH1 0x1D PUSH1 0x24 DUP3 ADD MSTORE PUSH32 0x416D6F756E74206D7573742062652067726561746572207468616E2030000000 PUSH1 0x44 DUP3 ADD MSTORE PUSH1 0x64 ADD PUSH2 0x666 JUMP JUMPDEST PUSH1 0x8 SLOAD DUP2 GT ISZERO PUSH2 0x15FA JUMPI PUSH1 0x40 MLOAD PUSH3 0x461BCD PUSH1 0xE5 SHL DUP2 MSTORE PUSH1 0x20 PUSH1 0x4 DUP3 ADD MSTORE PUSH1 0x19 PUSH1 0x24 DUP3 ADD MSTORE PUSH32 0x416D6F756E742065786365656473207072697A6520706F6F6C00000000000000 PUSH1 0x44 DUP3 ADD MSTORE PUSH1 0x64 ADD PUSH2 0x666 JUMP JUMPDEST PUSH1 0x6 SLOAD PUSH1 0x0 SWAP1 PUSH1 0x1 PUSH1 0x1 PUSH1 0xA0 SHL SUB PUSH1 0x1 PUSH1 0x20 SHL SWAP1 SWAP2 DIV AND PUSH4 0xA9059CBB PUSH2 0x1628 PUSH1 0x0 SLOAD PUSH1 0x1 PUSH1 0x1 PUSH1 0xA0 SHL SUB AND SWAP1 JUMP JUMPDEST PUSH1 0x40 MLOAD PUSH1 0x1 PUSH1 0x1 PUSH1 0xE0 SHL SUB NOT PUSH1 0xE0 DUP5 SWAP1 SHL AND DUP2 MSTORE PUSH1 0x1 PUSH1 0x1 PUSH1 0xA0 SHL SUB SWAP1 SWAP2 AND PUSH1 0x4 DUP3 ADD MSTORE PUSH1 0x24 DUP2 ADD DUP6 SWAP1 MSTORE PUSH1 0x44 ADD PUSH1 0x20 PUSH1 0x40 MLOAD DUP1 DUP4 SUB DUP2 PUSH1 0x0 DUP8 GAS CALL ISZERO DUP1 ISZERO PUSH2 0x1675 JUMPI RETURNDATASIZE PUSH1 0x0 DUP1 RETURNDATACOPY RETURNDATASIZE PUSH1 0x0 REVERT JUMPDEST POP POP POP POP PUSH1 0x40 MLOAD RETURNDATASIZE PUSH1 0x1F NOT PUSH1 0x1F DUP3 ADD AND DUP3 ADD DUP1 PUSH1 0x40 MSTORE POP DUP2 ADD SWAP1 PUSH2 0x1699 SWAP2 SWAP1 PUSH2 0x20E1 JUMP JUMPDEST SWAP1 POP DUP1 PUSH2 0x16B9 JUMPI PUSH1 0x40 MLOAD PUSH4 0x12171D83 PUSH1 0xE3 SHL DUP2 MSTORE PUSH1 0x4 ADD PUSH1 0x40 MLOAD DUP1 SWAP2 SUB SWAP1 REVERT JUMPDEST DUP2 PUSH1 0x8 PUSH1 0x0 DUP3 DUP3 SLOAD PUSH2 0x724 SWAP2 SWAP1 PUSH2 0x21D0 JUMP JUMPDEST PUSH2 0x16D3 PUSH2 0x17BE JUMP JUMPDEST PUSH1 0x1 PUSH1 0x1 PUSH1 0xA0 SHL SUB DUP2 AND PUSH2 0x16FA JUMPI PUSH1 0x40 MLOAD PUSH4 0xD92E233D PUSH1 0xE0 SHL DUP2 MSTORE PUSH1 0x4 ADD PUSH1 0x40 MLOAD DUP1 SWAP2 SUB SWAP1 REVERT JUMPDEST PUSH1 0x6 DUP1 SLOAD PUSH1 0x1 PUSH1 0x1 PUSH1 0xA0 SHL SUB DUP4 DUP2 AND PUSH1 0x1 PUSH1 0x20 SHL DUP2 DUP2 MUL PUSH5 0x100000000 PUSH1 0x1 PUSH1 0xC0 SHL SUB NOT DUP6 AND OR SWAP1 SWAP5 SSTORE PUSH1 0x40 MLOAD SWAP4 SWAP1 SWAP3 DIV AND SWAP2 DUP3 SWAP1 PUSH32 0xF8AD860C5D45B1983B1BDE1F0D779C6933F3C8740080A2AD9F1B40D2524099B7 SWAP1 PUSH1 0x0 SWAP1 LOG3 POP POP JUMP JUMPDEST PUSH2 0x1761 PUSH2 0x17BE JUMP JUMPDEST PUSH1 0x1 PUSH1 0x1 PUSH1 0xA0 SHL SUB DUP2 AND PUSH2 0x1788 JUMPI PUSH1 0x40 MLOAD PUSH4 0xD92E233D PUSH1 0xE0 SHL DUP2 MSTORE PUSH1 0x4 ADD PUSH1 0x40 MLOAD DUP1 SWAP2 SUB SWAP1 REVERT JUMPDEST PUSH1 0x7 DUP1 SLOAD PUSH1 0x1 PUSH1 0x1 PUSH1 0xA0 SHL SUB NOT AND PUSH1 0x1 PUSH1 0x1 PUSH1 0xA0 SHL SUB SWAP3 SWAP1 SWAP3 AND SWAP2 SWAP1 SWAP2 OR SWAP1 SSTORE JUMP JUMPDEST PUSH2 0x17B2 PUSH2 0x17BE JUMP JUMPDEST PUSH2 0x17BB DUP2 PUSH2 0x1D20 JUMP JUMPDEST POP JUMP JUMPDEST PUSH1 0x0 SLOAD PUSH1 0x1 PUSH1 0x1 PUSH1 0xA0 SHL SUB AND CALLER EQ PUSH2 0x7B2 JUMPI PUSH1 0x40 MLOAD PUSH3 0x461BCD PUSH1 0xE5 SHL DUP2 MSTORE PUSH1 0x20 PUSH1 0x4 DUP3 ADD MSTORE PUSH1 0x16 PUSH1 0x24 DUP3 ADD MSTORE PUSH22 0x27B7363C9031B0B63630B1363290313C9037BBB732B9 PUSH1 0x51 SHL PUSH1 0x44 DUP3 ADD MSTORE PUSH1 0x64 ADD PUSH2 0x666 JUMP JUMPDEST PUSH1 0x0 DUP4 DUP2 MSTORE PUSH1 0x9 PUSH1 0x20 MSTORE PUSH1 0x40 SWAP1 KECCAK256 PUSH1 0x3 DUP2 ADD SLOAD PUSH1 0xFF AND PUSH2 0x1B6B JUMPI PUSH1 0x40 DUP1 MLOAD PUSH1 0x6 DUP1 DUP3 MSTORE PUSH1 0xE0 DUP3 ADD SWAP1 SWAP3 MSTORE PUSH1 0x0 SWAP2 PUSH1 0x20 DUP3 ADD PUSH1 0xC0 DUP1 CALLDATASIZE DUP4 CALLDATACOPY ADD SWAP1 POP POP SWAP1 POP PUSH1 0x0 DUP1 PUSH1 0x0 DUP7 DUP7 PUSH1 0x0 DUP2 DUP2 LT PUSH2 0x1866 JUMPI PUSH2 0x1866 PUSH2 0x215C JUMP JUMPDEST SWAP1 POP PUSH1 0x20 MUL ADD CALLDATALOAD SWAP1 POP JUMPDEST PUSH1 0x6 DUP3 LT ISZERO PUSH2 0x1904 JUMPI PUSH1 0x40 DUP1 MLOAD PUSH1 0x20 DUP1 DUP3 ADD SWAP4 SWAP1 SWAP4 MSTORE DUP2 MLOAD DUP1 DUP3 SUB DUP5 ADD DUP2 MSTORE SWAP1 DUP3 ADD SWAP1 SWAP2 MSTORE DUP1 MLOAD SWAP2 ADD KECCAK256 PUSH1 0x0 PUSH2 0x18A7 PUSH1 0x63 DUP4 PUSH2 0x22CF JUMP JUMPDEST PUSH2 0x18B2 SWAP1 PUSH1 0x1 PUSH2 0x2119 JUMP JUMPDEST SWAP1 POP PUSH1 0x1 PUSH1 0xFF DUP3 AND SHL DUP5 DUP2 AND PUSH1 0x0 SUB PUSH2 0x18FD JUMPI DUP1 DUP6 OR SWAP5 POP DUP2 DUP7 DUP6 DUP2 MLOAD DUP2 LT PUSH2 0x18DD JUMPI PUSH2 0x18DD PUSH2 0x215C JUMP JUMPDEST PUSH1 0xFF SWAP1 SWAP3 AND PUSH1 0x20 SWAP3 DUP4 MUL SWAP2 SWAP1 SWAP2 ADD SWAP1 SWAP2 ADD MSTORE DUP4 PUSH2 0x18F9 DUP2 PUSH2 0x218D JUMP JUMPDEST SWAP5 POP POP JUMPDEST POP POP PUSH2 0x1870 JUMP JUMPDEST PUSH1 0x0 DUP1 JUMPDEST PUSH1 0x2 DUP8 ADD SLOAD DUP2 LT ISZERO PUSH2 0x19AE JUMPI PUSH1 0x0 JUMPDEST PUSH1 0x6 DUP2 LT ISZERO PUSH2 0x199B JUMPI DUP7 DUP2 DUP2 MLOAD DUP2 LT PUSH2 0x1932 JUMPI PUSH2 0x1932 PUSH2 0x215C JUMP JUMPDEST PUSH1 0x20 MUL PUSH1 0x20 ADD ADD MLOAD PUSH1 0xFF AND DUP9 PUSH1 0x2 ADD DUP4 DUP2 SLOAD DUP2 LT PUSH2 0x1952 JUMPI PUSH2 0x1952 PUSH2 0x215C JUMP JUMPDEST PUSH1 0x0 SWAP2 DUP3 MSTORE PUSH1 0x20 SWAP2 DUP3 SWAP1 KECCAK256 SWAP2 DUP2 DIV SWAP1 SWAP2 ADD SLOAD PUSH1 0xFF PUSH1 0x1F SWAP1 SWAP3 AND PUSH2 0x100 EXP SWAP1 DIV AND SUB PUSH2 0x1989 JUMPI DUP3 PUSH2 0x1981 DUP2 PUSH2 0x22E3 JUMP JUMPDEST SWAP4 POP POP PUSH2 0x199B JUMP JUMPDEST DUP1 PUSH2 0x1993 DUP2 PUSH2 0x218D JUMP JUMPDEST SWAP2 POP POP PUSH2 0x1917 JUMP JUMPDEST POP DUP1 PUSH2 0x19A6 DUP2 PUSH2 0x218D JUMP JUMPDEST SWAP2 POP POP PUSH2 0x1908 JUMP JUMPDEST POP PUSH1 0x0 PUSH2 0x19BF DUP3 DUP9 PUSH1 0x1 ADD SLOAD PUSH2 0x9F3 JUMP JUMPDEST SWAP1 POP PUSH1 0x0 DUP2 GT DUP1 ISZERO PUSH2 0x19D3 JUMPI POP PUSH1 0x8 SLOAD DUP2 GT ISZERO JUMPDEST ISZERO PUSH2 0x1A94 JUMPI DUP1 PUSH1 0x8 PUSH1 0x0 DUP3 DUP3 SLOAD PUSH2 0x19EA SWAP2 SWAP1 PUSH2 0x21D0 JUMP JUMPDEST SWAP1 SWAP2 SSTORE POP POP PUSH1 0x6 SLOAD DUP8 SLOAD PUSH1 0x40 MLOAD PUSH4 0xA9059CBB PUSH1 0xE0 SHL DUP2 MSTORE PUSH1 0x1 PUSH1 0x1 PUSH1 0xA0 SHL SUB SWAP2 DUP3 AND PUSH1 0x4 DUP3 ADD MSTORE PUSH1 0x24 DUP2 ADD DUP5 SWAP1 MSTORE PUSH1 0x0 SWAP3 PUSH1 0x1 PUSH1 0x20 SHL SWAP1 DIV SWAP1 SWAP2 AND SWAP1 PUSH4 0xA9059CBB SWAP1 PUSH1 0x44 ADD PUSH1 0x20 PUSH1 0x40 MLOAD DUP1 DUP4 SUB DUP2 PUSH1 0x0 DUP8 GAS CALL ISZERO DUP1 ISZERO PUSH2 0x1A4E JUMPI RETURNDATASIZE PUSH1 0x0 DUP1 RETURNDATACOPY RETURNDATASIZE PUSH1 0x0 REVERT JUMPDEST POP POP POP POP PUSH1 0x40 MLOAD RETURNDATASIZE PUSH1 0x1F NOT PUSH1 0x1F DUP3 ADD AND DUP3 ADD DUP1 PUSH1 0x40 MSTORE POP DUP2 ADD SWAP1 PUSH2 0x1A72 SWAP2 SWAP1 PUSH2 0x20E1 JUMP JUMPDEST SWAP1 POP DUP1 PUSH2 0x1A92 JUMPI PUSH1 0x40 MLOAD PUSH4 0x12171D83 PUSH1 0xE3 SHL DUP2 MSTORE PUSH1 0x4 ADD PUSH1 0x40 MLOAD DUP1 SWAP2 SUB SWAP1 REVERT JUMPDEST POP JUMPDEST PUSH1 0x3 DUP8 ADD DUP1 SLOAD PUSH1 0xFF DUP5 AND PUSH2 0x100 MUL PUSH2 0xFFFF NOT SWAP1 SWAP2 AND OR PUSH1 0x1 OR SWAP1 SSTORE PUSH1 0x4 DUP8 ADD DUP2 SWAP1 SSTORE PUSH1 0x40 MLOAD DUP11 SWAP1 PUSH32 0x9804522F28CC6C09332335D353E5331FF6336F84750C7C3ECFCB313F292AE660 SWAP1 PUSH2 0x1AE8 SWAP1 DUP10 SWAP1 PUSH2 0x2302 JUMP JUMPDEST PUSH1 0x40 MLOAD DUP1 SWAP2 SUB SWAP1 LOG2 DUP7 SLOAD PUSH1 0x40 DUP1 MLOAD DUP4 DUP2 MSTORE PUSH1 0xFF DUP6 AND PUSH1 0x20 DUP3 ADD MSTORE PUSH1 0x1 PUSH1 0x1 PUSH1 0xA0 SHL SUB SWAP1 SWAP3 AND SWAP2 DUP13 SWAP2 PUSH32 0x8F1F9DAE235BF33A2F4580D2EE07151C4D931A0AEABEB962BA9B2505B92EC74F SWAP2 ADD PUSH1 0x40 MLOAD DUP1 SWAP2 SUB SWAP1 LOG3 PUSH1 0x0 DUP1 MLOAD PUSH1 0x20 PUSH2 0x2316 DUP4 CODECOPY DUP2 MLOAD SWAP2 MSTORE PUSH1 0x8 SLOAD PUSH1 0x40 MLOAD PUSH2 0x1B5C SWAP2 DUP2 MSTORE PUSH1 0x20 ADD SWAP1 JUMP JUMPDEST PUSH1 0x40 MLOAD DUP1 SWAP2 SUB SWAP1 LOG1 POP POP POP POP POP POP JUMPDEST POP POP POP POP JUMP JUMPDEST PUSH2 0x1B79 PUSH2 0x1DC9 JUMP JUMPDEST PUSH1 0x2 DUP1 SLOAD PUSH1 0xFF PUSH1 0xA0 SHL NOT AND SWAP1 SSTORE PUSH32 0x5DB9EE0A495BF2E6FF9C91A7834C1BA4FDD244A5E8AA4E537BD38AEAE4B073AA CALLER JUMPDEST PUSH1 0x40 MLOAD PUSH1 0x1 PUSH1 0x1 PUSH1 0xA0 SHL SUB SWAP1 SWAP2 AND DUP2 MSTORE PUSH1 0x20 ADD PUSH1 0x40 MLOAD DUP1 SWAP2 SUB SWAP1 LOG1 JUMP JUMPDEST PUSH1 0x2 PUSH1 0x3 SLOAD SUB PUSH2 0x1C18 JUMPI PUSH1 0x40 MLOAD PUSH3 0x461BCD PUSH1 0xE5 SHL DUP2 MSTORE PUSH1 0x20 PUSH1 0x4 DUP3 ADD MSTORE PUSH1 0x1F PUSH1 0x24 DUP3 ADD MSTORE PUSH32 0x5265656E7472616E637947756172643A207265656E7472616E742063616C6C00 PUSH1 0x44 DUP3 ADD MSTORE PUSH1 0x64 ADD PUSH2 0x666 JUMP JUMPDEST PUSH1 0x2 PUSH1 0x3 SSTORE JUMP JUMPDEST PUSH1 0x2 SLOAD PUSH1 0x1 PUSH1 0xA0 SHL SWAP1 DIV PUSH1 0xFF AND ISZERO PUSH2 0x7B2 JUMPI PUSH1 0x40 MLOAD PUSH3 0x461BCD PUSH1 0xE5 SHL DUP2 MSTORE PUSH1 0x20 PUSH1 0x4 DUP3 ADD MSTORE PUSH1 0x10 PUSH1 0x24 DUP3 ADD MSTORE PUSH16 0x14185D5CD8589B194E881C185D5CD959 PUSH1 0x82 SHL PUSH1 0x44 DUP3 ADD MSTORE PUSH1 0x64 ADD PUSH2 0x666 JUMP JUMPDEST PUSH1 0x60 PUSH32 0x92FD13387C7FE7BEFBC38D303D6468778FB9731BC4583F17D92989C6FCFDEAAA DUP3 PUSH1 0x40 MLOAD PUSH1 0x24 ADD PUSH2 0x1CA5 SWAP2 MLOAD ISZERO ISZERO DUP2 MSTORE PUSH1 0x20 ADD SWAP1 JUMP JUMPDEST PUSH1 0x40 DUP1 MLOAD PUSH1 0x1F NOT DUP2 DUP5 SUB ADD DUP2 MSTORE SWAP2 SWAP1 MSTORE PUSH1 0x20 DUP2 ADD DUP1 MLOAD PUSH1 0x1 PUSH1 0x1 PUSH1 0xE0 SHL SUB AND PUSH1 0x1 PUSH1 0x1 PUSH1 0xE0 SHL SUB NOT SWAP1 SWAP4 AND SWAP3 SWAP1 SWAP3 OR SWAP1 SWAP2 MSTORE SWAP3 SWAP2 POP POP JUMP JUMPDEST PUSH2 0x1CE5 PUSH2 0x1C1F JUMP JUMPDEST PUSH1 0x2 DUP1 SLOAD PUSH1 0xFF PUSH1 0xA0 SHL NOT AND PUSH1 0x1 PUSH1 0xA0 SHL OR SWAP1 SSTORE PUSH32 0x62E78CEA01BEE320CD4E420270B5EA74000D11B0C9F74754EBDBFC544B05A258 PUSH2 0x1BA9 CALLER SWAP1 JUMP JUMPDEST CALLER PUSH1 0x1 PUSH1 0x1 PUSH1 0xA0 SHL SUB DUP3 AND SUB PUSH2 0x1D78 JUMPI PUSH1 0x40 MLOAD PUSH3 0x461BCD PUSH1 0xE5 SHL DUP2 MSTORE PUSH1 0x20 PUSH1 0x4 DUP3 ADD MSTORE PUSH1 0x17 PUSH1 0x24 DUP3 ADD MSTORE PUSH32 0x43616E6E6F74207472616E7366657220746F2073656C66000000000000000000 PUSH1 0x44 DUP3 ADD MSTORE PUSH1 0x64 ADD PUSH2 0x666 JUMP JUMPDEST PUSH1 0x1 DUP1 SLOAD PUSH1 0x1 PUSH1 0x1 PUSH1 0xA0 SHL SUB NOT AND PUSH1 0x1 PUSH1 0x1 PUSH1 0xA0 SHL SUB DUP4 DUP2 AND SWAP2 DUP3 OR SWAP1 SWAP3 SSTORE PUSH1 0x0 DUP1 SLOAD PUSH1 0x40 MLOAD SWAP3 SWAP4 AND SWAP2 PUSH32 0xED8889F560326EB138920D842192F0EB3DD22B4F139C87A2C57538E05BAE1278 SWAP2 SWAP1 LOG3 POP JUMP JUMPDEST PUSH1 0x2 SLOAD PUSH1 0x1 PUSH1 0xA0 SHL SWAP1 DIV PUSH1 0xFF AND PUSH2 0x7B2 JUMPI PUSH1 0x40 MLOAD PUSH3 0x461BCD PUSH1 0xE5 SHL DUP2 MSTORE PUSH1 0x20 PUSH1 0x4 DUP3 ADD MSTORE PUSH1 0x14 PUSH1 0x24 DUP3 ADD MSTORE PUSH20 0x14185D5CD8589B194E881B9BDD081C185D5CD959 PUSH1 0x62 SHL PUSH1 0x44 DUP3 ADD MSTORE PUSH1 0x64 ADD PUSH2 0x666 JUMP JUMPDEST DUP3 DUP1 SLOAD DUP3 DUP3 SSTORE SWAP1 PUSH1 0x0 MSTORE PUSH1 0x20 PUSH1 0x0 KECCAK256 SWAP1 PUSH1 0x1F ADD PUSH1 0x20 SWAP1 DIV DUP2 ADD SWAP3 DUP3 ISZERO PUSH2 0x1EAF JUMPI SWAP2 PUSH1 0x20 MUL DUP3 ADD PUSH1 0x0 JUMPDEST DUP4 DUP3 GT ISZERO PUSH2 0x1E80 JUMPI DUP4 MLOAD DUP4 DUP3 PUSH2 0x100 EXP DUP2 SLOAD DUP2 PUSH1 0xFF MUL NOT AND SWAP1 DUP4 PUSH1 0xFF AND MUL OR SWAP1 SSTORE POP SWAP3 PUSH1 0x20 ADD SWAP3 PUSH1 0x1 ADD PUSH1 0x20 DUP2 PUSH1 0x0 ADD DIV SWAP3 DUP4 ADD SWAP3 PUSH1 0x1 SUB MUL PUSH2 0x1E42 JUMP JUMPDEST DUP1 ISZERO PUSH2 0x1EAD JUMPI DUP3 DUP2 PUSH2 0x100 EXP DUP2 SLOAD SWAP1 PUSH1 0xFF MUL NOT AND SWAP1 SSTORE PUSH1 0x1 ADD PUSH1 0x20 DUP2 PUSH1 0x0 ADD DIV SWAP3 DUP4 ADD SWAP3 PUSH1 0x1 SUB MUL PUSH2 0x1E80 JUMP JUMPDEST POP JUMPDEST POP PUSH2 0x1EBB SWAP3 SWAP2 POP PUSH2 0x1EBF JUMP JUMPDEST POP SWAP1 JUMP JUMPDEST JUMPDEST DUP1 DUP3 GT ISZERO PUSH2 0x1EBB JUMPI PUSH1 0x0 DUP2 SSTORE PUSH1 0x1 ADD PUSH2 0x1EC0 JUMP JUMPDEST PUSH1 0x0 PUSH1 0x20 DUP3 DUP5 SUB SLT ISZERO PUSH2 0x1EE6 JUMPI PUSH1 0x0 DUP1 REVERT JUMPDEST POP CALLDATALOAD SWAP2 SWAP1 POP JUMP JUMPDEST PUSH1 0x0 DUP2 MLOAD DUP1 DUP5 MSTORE PUSH1 0x20 DUP1 DUP6 ADD SWAP5 POP DUP1 DUP5 ADD PUSH1 0x0 JUMPDEST DUP4 DUP2 LT ISZERO PUSH2 0x1F20 JUMPI DUP2 MLOAD PUSH1 0xFF AND DUP8 MSTORE SWAP6 DUP3 ADD SWAP6 SWAP1 DUP3 ADD SWAP1 PUSH1 0x1 ADD PUSH2 0x1F01 JUMP JUMPDEST POP SWAP5 SWAP6 SWAP5 POP POP POP POP POP JUMP JUMPDEST PUSH1 0x1 DUP1 PUSH1 0xA0 SHL SUB DUP8 AND DUP2 MSTORE DUP6 PUSH1 0x20 DUP3 ADD MSTORE PUSH1 0xC0 PUSH1 0x40 DUP3 ADD MSTORE PUSH1 0x0 PUSH2 0x1F52 PUSH1 0xC0 DUP4 ADD DUP8 PUSH2 0x1EED JUMP JUMPDEST SWAP5 ISZERO ISZERO PUSH1 0x60 DUP4 ADD MSTORE POP PUSH1 0xFF SWAP3 SWAP1 SWAP3 AND PUSH1 0x80 DUP4 ADD MSTORE PUSH1 0xA0 SWAP1 SWAP2 ADD MSTORE SWAP4 SWAP3 POP POP POP JUMP JUMPDEST PUSH1 0x0 DUP1 DUP4 PUSH1 0x1F DUP5 ADD SLT PUSH2 0x1F85 JUMPI PUSH1 0x0 DUP1 REVERT JUMPDEST POP DUP2 CALLDATALOAD PUSH8 0xFFFFFFFFFFFFFFFF DUP2 GT ISZERO PUSH2 0x1F9D JUMPI PUSH1 0x0 DUP1 REVERT JUMPDEST PUSH1 0x20 DUP4 ADD SWAP2 POP DUP4 PUSH1 0x20 DUP3 PUSH1 0x5 SHL DUP6 ADD ADD GT ISZERO PUSH2 0x1FB8 JUMPI PUSH1 0x0 DUP1 REVERT JUMPDEST SWAP3 POP SWAP3 SWAP1 POP JUMP JUMPDEST PUSH1 0x0 DUP1 PUSH1 0x0 PUSH1 0x40 DUP5 DUP7 SUB SLT ISZERO PUSH2 0x1FD4 JUMPI PUSH1 0x0 DUP1 REVERT JUMPDEST DUP4 CALLDATALOAD SWAP3 POP PUSH1 0x20 DUP5 ADD CALLDATALOAD PUSH8 0xFFFFFFFFFFFFFFFF DUP2 GT ISZERO PUSH2 0x1FF2 JUMPI PUSH1 0x0 DUP1 REVERT JUMPDEST PUSH2 0x1FFE DUP7 DUP3 DUP8 ADD PUSH2 0x1F73 JUMP JUMPDEST SWAP5 SWAP8 SWAP1 SWAP7 POP SWAP4 SWAP5 POP POP POP POP JUMP JUMPDEST DUP1 CALLDATALOAD PUSH1 0x1 PUSH1 0x1 PUSH1 0xA0 SHL SUB DUP2 AND DUP2 EQ PUSH2 0x2022 JUMPI PUSH1 0x0 DUP1 REVERT JUMPDEST SWAP2 SWAP1 POP JUMP JUMPDEST PUSH1 0x0 DUP1 PUSH1 0x40 DUP4 DUP6 SUB SLT ISZERO PUSH2 0x203A JUMPI PUSH1 0x0 DUP1 REVERT JUMPDEST PUSH2 0x2043 DUP4 PUSH2 0x200B JUMP JUMPDEST SWAP5 PUSH1 0x20 SWAP4 SWAP1 SWAP4 ADD CALLDATALOAD SWAP4 POP POP POP JUMP JUMPDEST DUP1 CALLDATALOAD PUSH1 0xFF DUP2 AND DUP2 EQ PUSH2 0x2022 JUMPI PUSH1 0x0 DUP1 REVERT JUMPDEST PUSH1 0x0 DUP1 PUSH1 0x40 DUP4 DUP6 SUB SLT ISZERO PUSH2 0x2075 JUMPI PUSH1 0x0 DUP1 REVERT JUMPDEST PUSH2 0x2043 DUP4 PUSH2 0x2051 JUMP JUMPDEST PUSH1 0x0 DUP1 PUSH1 0x40 DUP4 DUP6 SUB SLT ISZERO PUSH2 0x2091 JUMPI PUSH1 0x0 DUP1 REVERT JUMPDEST POP POP DUP1 CALLDATALOAD SWAP3 PUSH1 0x20 SWAP1 SWAP2 ADD CALLDATALOAD SWAP2 POP JUMP JUMPDEST PUSH1 0x0 PUSH1 0x20 DUP3 DUP5 SUB SLT ISZERO PUSH2 0x20B2 JUMPI PUSH1 0x0 DUP1 REVERT JUMPDEST PUSH2 0x117D DUP3 PUSH2 0x200B JUMP JUMPDEST PUSH1 0x0 PUSH1 0x20 DUP3 DUP5 SUB SLT ISZERO PUSH2 0x20CD JUMPI PUSH1 0x0 DUP1 REVERT JUMPDEST DUP2 CALLDATALOAD PUSH4 0xFFFFFFFF DUP2 AND DUP2 EQ PUSH2 0x117D JUMPI PUSH1 0x0 DUP1 REVERT JUMPDEST PUSH1 0x0 PUSH1 0x20 DUP3 DUP5 SUB SLT ISZERO PUSH2 0x20F3 JUMPI PUSH1 0x0 DUP1 REVERT JUMPDEST DUP2 MLOAD DUP1 ISZERO ISZERO DUP2 EQ PUSH2 0x117D JUMPI PUSH1 0x0 DUP1 REVERT JUMPDEST PUSH4 0x4E487B71 PUSH1 0xE0 SHL PUSH1 0x0 MSTORE PUSH1 0x11 PUSH1 0x4 MSTORE PUSH1 0x24 PUSH1 0x0 REVERT JUMPDEST DUP1 DUP3 ADD DUP1 DUP3 GT ISZERO PUSH2 0xA6E JUMPI PUSH2 0xA6E PUSH2 0x2103 JUMP JUMPDEST PUSH1 0x0 PUSH1 0x20 DUP3 DUP5 SUB SLT ISZERO PUSH2 0x213E JUMPI PUSH1 0x0 DUP1 REVERT JUMPDEST POP MLOAD SWAP2 SWAP1 POP JUMP JUMPDEST DUP1 DUP3 MUL DUP2 ISZERO DUP3 DUP3 DIV DUP5 EQ OR PUSH2 0xA6E JUMPI PUSH2 0xA6E PUSH2 0x2103 JUMP JUMPDEST PUSH4 0x4E487B71 PUSH1 0xE0 SHL PUSH1 0x0 MSTORE PUSH1 0x32 PUSH1 0x4 MSTORE PUSH1 0x24 PUSH1 0x0 REVERT JUMPDEST PUSH1 0x0 PUSH1 0x20 DUP3 DUP5 SUB SLT ISZERO PUSH2 0x2184 JUMPI PUSH1 0x0 DUP1 REVERT JUMPDEST PUSH2 0x117D DUP3 PUSH2 0x2051 JUMP JUMPDEST PUSH1 0x0 PUSH1 0x1 DUP3 ADD PUSH2 0x219F JUMPI PUSH2 0x219F PUSH2 0x2103 JUMP JUMPDEST POP PUSH1 0x1 ADD SWAP1 JUMP JUMPDEST PUSH4 0x4E487B71 PUSH1 0xE0 SHL PUSH1 0x0 MSTORE PUSH1 0x12 PUSH1 0x4 MSTORE PUSH1 0x24 PUSH1 0x0 REVERT JUMPDEST PUSH1 0x0 DUP3 PUSH2 0x21CB JUMPI PUSH2 0x21CB PUSH2 0x21A6 JUMP JUMPDEST POP DIV SWAP1 JUMP JUMPDEST DUP2 DUP2 SUB DUP2 DUP2 GT ISZERO PUSH2 0xA6E JUMPI PUSH2 0xA6E PUSH2 0x2103 JUMP JUMPDEST PUSH1 0x0 PUSH1 0x20 DUP1 DUP4 MSTORE DUP4 MLOAD DUP2 DUP5 ADD MSTORE DUP1 DUP5 ADD MLOAD PUSH1 0x40 DUP5 ADD MSTORE PUSH2 0xFFFF PUSH1 0x40 DUP6 ADD MLOAD AND PUSH1 0x60 DUP5 ADD MSTORE PUSH1 0x60 DUP5 ADD MLOAD PUSH4 0xFFFFFFFF DUP1 DUP3 AND PUSH1 0x80 DUP7 ADD MSTORE DUP1 PUSH1 0x80 DUP8 ADD MLOAD AND PUSH1 0xA0 DUP7 ADD MSTORE POP POP PUSH1 0xA0 DUP5 ADD MLOAD PUSH1 0xC0 DUP1 DUP6 ADD MSTORE DUP1 MLOAD DUP1 PUSH1 0xE0 DUP7 ADD MSTORE PUSH1 0x0 JUMPDEST DUP2 DUP2 LT ISZERO PUSH2 0x225A JUMPI DUP3 DUP2 ADD DUP5 ADD MLOAD DUP7 DUP3 ADD PUSH2 0x100 ADD MSTORE DUP4 ADD PUSH2 0x223D JUMP JUMPDEST POP PUSH2 0x100 SWAP3 POP PUSH1 0x0 DUP4 DUP3 DUP8 ADD ADD MSTORE DUP3 PUSH1 0x1F NOT PUSH1 0x1F DUP4 ADD AND DUP7 ADD ADD SWAP4 POP POP POP POP SWAP3 SWAP2 POP POP JUMP JUMPDEST DUP4 DUP2 MSTORE PUSH1 0x40 PUSH1 0x20 DUP1 DUP4 ADD DUP3 SWAP1 MSTORE SWAP1 DUP3 ADD DUP4 SWAP1 MSTORE PUSH1 0x0 SWAP1 DUP5 SWAP1 PUSH1 0x60 DUP5 ADD DUP4 JUMPDEST DUP7 DUP2 LT ISZERO PUSH2 0x22C3 JUMPI PUSH1 0xFF PUSH2 0x22B0 DUP6 PUSH2 0x2051 JUMP JUMPDEST AND DUP3 MSTORE SWAP3 DUP3 ADD SWAP3 SWAP1 DUP3 ADD SWAP1 PUSH1 0x1 ADD PUSH2 0x229D JUMP JUMPDEST POP SWAP8 SWAP7 POP POP POP POP POP POP POP JUMP JUMPDEST PUSH1 0x0 DUP3 PUSH2 0x22DE JUMPI PUSH2 0x22DE PUSH2 0x21A6 JUMP JUMPDEST POP MOD SWAP1 JUMP JUMPDEST PUSH1 0x0 PUSH1 0xFF DUP3 AND PUSH1 0xFF DUP2 SUB PUSH2 0x22F9 JUMPI PUSH2 0x22F9 PUSH2 0x2103 JUMP JUMPDEST PUSH1 0x1 ADD SWAP3 SWAP2 POP POP JUMP JUMPDEST PUSH1 0x20 DUP2 MSTORE PUSH1 0x0 PUSH2 0x117D PUSH1 0x20 DUP4 ADD DUP5 PUSH2 0x1EED JUMP INVALID PUSH28 0xC22304AC771F50D6CC29B56387CB4855F284E7A1F83E6420FE9B8BBD 0xAF GASLIMIT 0xC9 LOG2 PUSH5 0x6970667358 0x22 SLT KECCAK256 0xAD 0xCA 0xB6 SDIV MSIZE 0x4C SDIV PUSH25 0x9C00BC8FB9ACA91929F7676FD1C8F4CE554BDB0EFA575D7D64 PUSH20 0x6F6C634300081300330000000000000000000000 "},"methodIdentifiers":{"KEY_HASH()":"51dc86a5","MAX_BET()":"7e95b523","MAX_NUMBER()":"fea9b572","MIN_BET()":"6540742f","NUM_WORDS()":"72cf6e34","PRIZE_POOL_PERCENT()":"a7fd35e7","REQUEST_CONFIRMATIONS()":"67f082b0","REQUIRED_NUMBERS()":"de6adce4","SUBSCRIPTION_ID()":"030932bb","TREASURY_PERCENT()":"83d5e726","acceptOwnership()":"79ba5097","addToPrizePool(uint256)":"186ba253","bets(uint256)":"22af00fa","bettingToken()":"43425e88","calculatePrize(uint8,uint256)":"57fbd802","callbackGasLimit()":"24f74697","emergencyWithdraw()":"db2e21bc","getBet(uint256)":"061e494f","owner()":"8da5cb5b","pause()":"8456cb59","paused()":"5c975abb","placeBet(uint256,uint8[])":"838f8d3c","prizePool()":"719ce73e","rawFulfillRandomWords(uint256,uint256[])":"1fe543e3","removePrizePoolFunds(uint256)":"ddb7fda8","rescueTokens(address,uint256)":"57376198","s_vrfCoordinator()":"9eccacf6","setBetLimits(uint256,uint256)":"7687dd49","setBettingToken(address)":"de40a4a9","setCallbackGasLimit(uint32)":"a4eb718c","setCoordinator(address)":"8ea98117","setTreasury(address)":"f0f44260","transferOwnership(address)":"f2fde38b","treasury()":"61d027b3","unpause()":"3f4ba83a"}}}}}