{
  "_format": "hh-sol-artifact-1",
  "contractName": "VRFCoordinatorV2_5Mock",
  "sourceName": "contracts/mocks/VRFCoordinatorV2_5Mock.sol",
  "abi": [
    {
      "inputs": [
        {
          "internalType": "uint32",
          "name": "have",
          "type": "uint32"
        },
        {
          "internalType": "uint32",
          "name": "min",
          "type": "uint32"
        },
        {
          "internalType": "uint32",
          "name": "max",
          "type": "uint32"
        }
      ],
      "name": "InvalidCallbackGasLimit",
      "type": "error"
    },
    {
      "inputs": [
        {
          "internalType": "uint256",
          "name": "expected",
          "type": "uint256"
        },
        {
          "internalType": "uint256",
          "name": "actual",
          "type": "uint256"
        }
      ],
      "name": "InvalidRandomWords",
      "type": "error"
    },
    {
      "inputs": [
        {
          "internalType": "uint16",
          "name": "have",
          "type": "uint16"
        },
        {
          "internalType": "uint16",
          "name": "min",
          "type": "uint16"
        },
        {
          "internalType": "uint16",
          "name": "max",
          "type": "uint16"
        }
      ],
      "name": "InvalidRequestConfirmations",
      "type": "error"
    },
    {
      "inputs": [
        {
          "internalType": "uint32",
          "name": "have",
          "type": "uint32"
        },
        {
          "internalType": "uint32",
          "name": "max",
          "type": "uint32"
        }
      ],
      "name": "NumWordsTooBig",
      "type": "error"
    },
    {
      "anonymous": false,
      "inputs": [
        {
          "indexed": true,
          "internalType": "uint256",
          "name": "requestId",
          "type": "uint256"
        },
        {
          "indexed": false,
          "internalType": "uint256[]",
          "name": "words",
          "type": "uint256[]"
        },
        {
          "indexed": false,
          "internalType": "bool",
          "name": "success",
          "type": "bool"
        }
      ],
      "name": "RandomWordsFulfilled",
      "type": "event"
    },
    {
      "anonymous": false,
      "inputs": [
        {
          "indexed": true,
          "internalType": "uint256",
          "name": "requestId",
          "type": "uint256"
        },
        {
          "indexed": true,
          "internalType": "address",
          "name": "requester",
          "type": "address"
        },
        {
          "components": [
            {
              "internalType": "bytes32",
              "name": "keyHash",
              "type": "bytes32"
            },
            {
              "internalType": "uint256",
              "name": "subId",
              "type": "uint256"
            },
            {
              "internalType": "uint16",
              "name": "requestConfirmations",
              "type": "uint16"
            },
            {
              "internalType": "uint32",
              "name": "callbackGasLimit",
              "type": "uint32"
            },
            {
              "internalType": "uint32",
              "name": "numWords",
              "type": "uint32"
            },
            {
              "internalType": "bytes",
              "name": "extraArgs",
              "type": "bytes"
            }
          ],
          "indexed": false,
          "internalType": "struct VRFV2PlusClient.RandomWordsRequest",
          "name": "request",
          "type": "tuple"
        }
      ],
      "name": "RandomWordsRequested",
      "type": "event"
    },
    {
      "inputs": [],
      "name": "MAX_CALLBACK_GAS_LIMIT",
      "outputs": [
        {
          "internalType": "uint32",
          "name": "",
          "type": "uint32"
        }
      ],
      "stateMutability": "view",
      "type": "function"
    },
    {
      "inputs": [],
      "name": "MAX_NUM_WORDS",
      "outputs": [
        {
          "internalType": "uint32",
          "name": "",
          "type": "uint32"
        }
      ],
      "stateMutability": "view",
      "type": "function"
    },
    {
      "inputs": [],
      "name": "MAX_REQUEST_CONFIRMATIONS",
      "outputs": [
        {
          "internalType": "uint16",
          "name": "",
          "type": "uint16"
        }
      ],
      "stateMutability": "view",
      "type": "function"
    },
    {
      "inputs": [],
      "name": "MIN_CALLBACK_GAS_LIMIT",
      "outputs": [
        {
          "internalType": "uint32",
          "name": "",
          "type": "uint32"
        }
      ],
      "stateMutability": "view",
      "type": "function"
    },
    {
      "inputs": [],
      "name": "MIN_REQUEST_CONFIRMATIONS",
      "outputs": [
        {
          "internalType": "uint16",
          "name": "",
          "type": "uint16"
        }
      ],
      "stateMutability": "view",
      "type": "function"
    },
    {
      "inputs": [
        {
          "internalType": "uint256",
          "name": "requestId",
          "type": "uint256"
        },
        {
          "internalType": "address",
          "name": "consumerContract",
          "type": "address"
        },
        {
          "internalType": "uint256[]",
          "name": "words",
          "type": "uint256[]"
        }
      ],
      "name": "fulfillRandomWordsWithOverride",
      "outputs": [],
      "stateMutability": "nonpayable",
      "type": "function"
    },
    {
      "inputs": [
        {
          "internalType": "uint256",
          "name": "requestId",
          "type": "uint256"
        },
        {
          "internalType": "uint32",
          "name": "numWords",
          "type": "uint32"
        }
      ],
      "name": "generateRandomWords",
      "outputs": [
        {
          "internalType": "uint256[]",
          "name": "",
          "type": "uint256[]"
        }
      ],
      "stateMutability": "pure",
      "type": "function"
    },
    {
      "inputs": [
        {
          "internalType": "uint256",
          "name": "requestId",
          "type": "uint256"
        }
      ],
      "name": "getRequest",
      "outputs": [
        {
          "components": [
            {
              "internalType": "bytes32",
              "name": "keyHash",
              "type": "bytes32"
            },
            {
              "internalType": "uint256",
              "name": "subId",
              "type": "uint256"
            },
            {
              "internalType": "uint16",
              "name": "requestConfirmations",
              "type": "uint16"
            },
            {
              "internalType": "uint32",
              "name": "callbackGasLimit",
              "type": "uint32"
            },
            {
              "internalType": "uint32",
              "name": "numWords",
              "type": "uint32"
            },
            {
              "internalType": "bytes",
              "name": "extraArgs",
              "type": "bytes"
            }
          ],
          "internalType": "struct VRFV2PlusClient.RandomWordsRequest",
          "name": "request",
          "type": "tuple"
        },
        {
          "internalType": "bool",
          "name": "isFulfilled",
          "type": "bool"
        }
      ],
      "stateMutability": "view",
      "type": "function"
    },
    {
      "inputs": [
        {
          "components": [
            {
              "internalType": "bytes32",
              "name": "keyHash",
              "type": "bytes32"
            },
            {
              "internalType": "uint256",
              "name": "subId",
              "type": "uint256"
            },
            {
              "internalType": "uint16",
              "name": "requestConfirmations",
              "type": "uint16"
            },
            {
              "internalType": "uint32",
              "name": "callbackGasLimit",
              "type": "uint32"
            },
            {
              "internalType": "uint32",
              "name": "numWords",
              "type": "uint32"
            },
            {
              "internalType": "bytes",
              "name": "extraArgs",
              "type": "bytes"
            }
          ],
          "internalType": "struct VRFV2PlusClient.RandomWordsRequest",
          "name": "req",
          "type": "tuple"
        }
      ],
      "name": "requestRandomWords",
      "outputs": [
        {
          "internalType": "uint256",
          "name": "",
          "type": "uint256"
        }
      ],
      "stateMutability": "nonpayable",
      "type": "function"
    },
    {
      "inputs": [
        {
          "internalType": "uint256",
          "name": "",
          "type": "uint256"
        }
      ],
      "name": "s_fulfilled",
      "outputs": [
        {
          "internalType": "bool",
          "name": "",
          "type": "bool"
        }
      ],
      "stateMutability": "view",
      "type": "function"
    },
    {
      "inputs": [
        {
          "internalType": "uint256",
          "name": "",
          "type": "uint256"
        }
      ],
      "name": "s_requests",
      "outputs": [
        {
          "internalType": "bytes32",
          "name": "keyHash",
          "type": "bytes32"
        },
        {
          "internalType": "uint256",
          "name": "subId",
          "type": "uint256"
        },
        {
          "internalType": "uint16",
          "name": "requestConfirmations",
          "type": "uint16"
        },
        {
          "internalType": "uint32",
          "name": "callbackGasLimit",
          "type": "uint32"
        },
        {
          "internalType": "uint32",
          "name": "numWords",
          "type": "uint32"
        },
        {
          "internalType": "bytes",
          "name": "extraArgs",
          "type": "bytes"
        }
      ],
      "stateMutability": "view",
      "type": "function"
    }
  ],
  "bytecode": "0x60806040526000805534801561001457600080fd5b50610fc9806100246000396000f3fe608060405234801561001057600080fd5b50600436106100a95760003560e01c8063843f733a11610071578063843f733a1461012a5780639b1c385e1461015d578063a168fa891461017e578063b3d03582146101a3578063c58343ef146101ad578063eef1fbef146101ce57600080fd5b806308e3898e146100ae57806315c48b84146100c357806339c33215146100e35780633cac5f691461010257806340d6bb8214610122575b600080fd5b6100c16100bc3660046109d6565b6101d6565b005b6100cb60c881565b60405161ffff90911681526020015b60405180910390f35b6100ed624c4b4081565b60405163ffffffff90911681526020016100da565b610115610110366004610abf565b610432565b6040516100da9190610b26565b6100ed600a81565b61014d610138366004610b40565b60026020526000908152604090205460ff1681565b60405190151581526020016100da565b61017061016b366004610bdb565b610510565b6040519081526020016100da565b61019161018c366004610b40565b610756565b6040516100da96959493929190610cd5565b6100ed620186a081565b6101c06101bb366004610b40565b610824565b6040516100da929190610d7f565b6100cb600381565b6000838152600160208181526040808420815160c081018352815481529381015492840192909252600282015461ffff81169184019190915263ffffffff62010000820481166060850152600160301b90910416608083015260038101805460a08401919061024490610da3565b80601f016020809104026020016040519081016040528092919081815260200182805461027090610da3565b80156102bd5780601f10610292576101008083540402835291602001916102bd565b820191906000526020600020905b8154815290600101906020018083116102a057829003601f168201915b5050505050815250509050806080015163ffffffff1682511461030d57608081015182516040516326fd2f1b60e11b815263ffffffff909216600483015260248201526044015b60405180910390fd5b60008481526002602052604090205460ff161561036c5760405162461bcd60e51b815260206004820152601960248201527f5265717565737420616c72656164792066756c66696c6c6564000000000000006044820152606401610304565b604051631fe543e360e01b815283906001906001600160a01b03831690631fe543e39061039f9089908890600401610ddd565b600060405180830381600087803b1580156103b957600080fd5b505af19250505080156103ca575060015b6103d6575060006103f0565b6000868152600260205260409020805460ff191660011790555b857f969e72fbacf24da85b4bce2a3cef3d8dc2497b1750c4cc5a06b52c10413383378583604051610422929190610df6565b60405180910390a2505050505050565b606060008263ffffffff1667ffffffffffffffff81111561045557610455610966565b60405190808252806020026020018201604052801561047e578160200160208202803683370190505b50905060005b8363ffffffff168163ffffffff1610156105085784816040516020016104ba92919091825263ffffffff16602082015260400190565b6040516020818303038152906040528051906020012060001c828263ffffffff16815181106104eb576104eb610e09565b60209081029190910101528061050081610e35565b915050610484565b509392505050565b6000600361ffff16826040015161ffff161080610539575060c861ffff16826040015161ffff16115b1561057157604080830151905163539c34bb60e11b815261ffff90911660048201526003602482015260c86044820152606401610304565b620186a063ffffffff16826060015163ffffffff1610806105a45750624c4b4063ffffffff16826060015163ffffffff16115b156105e2576060820151604051632c7b060960e01b815263ffffffff9091166004820152620186a06024820152624c4b406044820152606401610304565b600a63ffffffff16826080015163ffffffff1611156106295760808201516040516311ce1afb60e21b815263ffffffff9091166004820152600a6024820152604401610304565b60008054908061063883610e58565b909155505060008054604080516020810192909252339082015242606082015260800160408051808303601f1901815291815281516020928301206000818152600180855290839020875181559387015190840155908501516002830180546060880151608089015161ffff90941665ffffffffffff19909216919091176201000063ffffffff928316021769ffffffff0000000000001916600160301b919093160291909117905560a085015190925084919060038201906106fb9082610ec0565b50505060008181526002602052604090819020805460ff1916905551339082907f2ea066de822ff33b1875314a9d9dfc63bfdccba35eafc3c86ffc96d57c7f809590610748908790610f80565b60405180910390a392915050565b60016020819052600091825260409091208054918101546002820154600383018054929361ffff83169363ffffffff620100008504811694600160301b90041692906107a190610da3565b80601f01602080910402602001604051908101604052809291908181526020018280546107cd90610da3565b801561081a5780601f106107ef5761010080835404028352916020019161081a565b820191906000526020600020905b8154815290600101906020018083116107fd57829003601f168201915b5050505050905086565b6040805160c0810182526000808252602082018190529181018290526060808201839052608082019290925260a08101919091526000828152600160208181526040808420600280845282862054835160c08101855283548152958301549486019490945281015461ffff81169285019290925263ffffffff62010000830481166060860152600160301b9092049091166080840152600381018054919360ff9093169291849160a08401916108d990610da3565b80601f016020809104026020016040519081016040528092919081815260200182805461090590610da3565b80156109525780601f1061092757610100808354040283529160200191610952565b820191906000526020600020905b81548152906001019060200180831161093557829003601f168201915b505050505081525050915091509150915091565b634e487b7160e01b600052604160045260246000fd5b60405160c0810167ffffffffffffffff8111828210171561099f5761099f610966565b60405290565b604051601f8201601f1916810167ffffffffffffffff811182821017156109ce576109ce610966565b604052919050565b6000806000606084860312156109eb57600080fd5b833592506020808501356001600160a01b0381168114610a0a57600080fd5b9250604085013567ffffffffffffffff80821115610a2757600080fd5b818701915087601f830112610a3b57600080fd5b813581811115610a4d57610a4d610966565b8060051b9150610a5e8483016109a5565b818152918301840191848101908a841115610a7857600080fd5b938501935b83851015610a9657843582529385019390850190610a7d565b8096505050505050509250925092565b803563ffffffff81168114610aba57600080fd5b919050565b60008060408385031215610ad257600080fd5b82359150610ae260208401610aa6565b90509250929050565b600081518084526020808501945080840160005b83811015610b1b57815187529582019590820190600101610aff565b509495945050505050565b602081526000610b396020830184610aeb565b9392505050565b600060208284031215610b5257600080fd5b5035919050565b803561ffff81168114610aba57600080fd5b600082601f830112610b7c57600080fd5b813567ffffffffffffffff811115610b9657610b96610966565b610ba9601f8201601f19166020016109a5565b818152846020838601011115610bbe57600080fd5b816020850160208301376000918101602001919091529392505050565b600060208284031215610bed57600080fd5b813567ffffffffffffffff80821115610c0557600080fd5b9083019060c08286031215610c1957600080fd5b610c2161097c565b8235815260208301356020820152610c3b60408401610b59565b6040820152610c4c60608401610aa6565b6060820152610c5d60808401610aa6565b608082015260a083013582811115610c7457600080fd5b610c8087828601610b6b565b60a08301525095945050505050565b6000815180845260005b81811015610cb557602081850181015186830182015201610c99565b506000602082860101526020601f19601f83011685010191505092915050565b86815285602082015261ffff85166040820152600063ffffffff808616606084015280851660808401525060c060a0830152610d1460c0830184610c8f565b98975050505050505050565b805182526020810151602083015261ffff60408201511660408301526000606082015163ffffffff8082166060860152806080850151166080860152505060a082015160c060a0850152610d7760c0850182610c8f565b949350505050565b604081526000610d926040830185610d20565b905082151560208301529392505050565b600181811c90821680610db757607f821691505b602082108103610dd757634e487b7160e01b600052602260045260246000fd5b50919050565b828152604060208201526000610d776040830184610aeb565b604081526000610d926040830185610aeb565b634e487b7160e01b600052603260045260246000fd5b634e487b7160e01b600052601160045260246000fd5b600063ffffffff808316818103610e4e57610e4e610e1f565b6001019392505050565b600060018201610e6a57610e6a610e1f565b5060010190565b601f821115610ebb57600081815260208120601f850160051c81016020861015610e985750805b601f850160051c820191505b81811015610eb757828155600101610ea4565b5050505b505050565b815167ffffffffffffffff811115610eda57610eda610966565b610eee81610ee88454610da3565b84610e71565b602080601f831160018114610f235760008415610f0b5750858301515b600019600386901b1c1916600185901b178555610eb7565b600085815260208120601f198616915b82811015610f5257888601518255948401946001909101908401610f33565b5085821015610f705787850151600019600388901b60f8161c191681555b5050505050600190811b01905550565b602081526000610b396020830184610d2056fea26469706673582212204c2b7231205ae1ec1ac7a25421dc0d2f82a762c75084d2bdf393d53df84e318064736f6c63430008130033",
  "linkReferences": {},
  "deployedLinkReferences": {}
}